:100000000C94B8230C94E9230C94E9230C94E92371
:100010000C94E9230C94E9230C94E9230C94E92330
:100020000C94E9230C94E9230C94E9230C94E92320
:100030000C94E9230C94E9230C94E9230C94E92310
:100040000C94E9230C9406F20C94E9230C94E92314
:100050000C94E9230C94E9230C949FE70D94C11DA3
:100060000C94E9230C94ADBA0C94E9230C94E92385
:100070000C94E9230C94E9230C94E9230C94E923D0
:100080000C94B0FB0C94E9230C94E9230C94E92321
:100090000C94E9230C94E9230C94E9230C94E923B0
:1000A0000C94E9230C94E9230C9482FB0C94E9232F
:1000B0000C94E9230C94E9230C94E9230C9454FB4D
:1000C0000C94E9230C94E9230C94E9230C94E92380
:1000D0000C94E9230C94E9230C94E9230C94E92370
:1000E0000C94E923084AD73B3BCE016E84BCBFFD8C
:1000F000C12F3D6C74319ABD56833DDA3D00C77FF8
:1001000011BED9E4BB4C3E916BAAAABE0000008090
:100110003F05A84CCDB2D44EB93836A9020C50B91F
:10012000918688083CA6AAAA2ABE000000803F004B
:100130000D948C0F0D94A01A0C9415D10C9402E917
:100140000C9464D70D94511A0C943D480D94410DB4
:100150000D94A0140D9409240D94AE0C0C9487CB2F
:100160000C9405BB0C94A9C70D94810C0C94A5BBF1
:100170000C94C6BE0C941CD50C9421D50C944A4802
:100180000C941B480C9422480D94AA1A0C94D7BACC
:100190000D94B60C0D943F000D94BB0C0D94BC0E49
:1001A0000C94547F0D947A2A0C945B340D94240F94
:1001B0000C941E480D942F0C0C94F9260C94ABBB98
:1001C0000C94ED7E0C948D800D9434390C94107F3A
:1001D0000D94961A0C940DC40D9443260C94A8BB50
:1001E0000C94F2DE0C9424800C9436480D942D0C63
:1001F0000D94E11A0C946A800D94322B0C940B48E8
:100200000D94900C0C9439CA0D94BC0C0D943B2C9D
:100210000C94A7CA0C9428480D9463000D94B9144B
:100220000D94C4100D94681A0C941BE20C94E6BC57
:100230000C9425480D94A00C0C9401800D94A922D7
:100240000C945AD70C9466C10D94B6140C9412BC3D
:100250000C94AEBB0C94A6C70C948C7E0C94E2BCA0
:100260000C9461BE0D948C1A0C9474BE0D94A3145E
:100270000C9431C90D943C000C942DC30C94987FC0
:100280000D9480250C9422DC0C94BB7F0C94AF80E1
:100290000D94D71A0C94A3BE0C9455D70C949DC101
:1002A0000C94E1FF0D94C00C0D94591A0D94FD1699
:1002B0000C94EABE0C9443480C94A9BE0C9498D1BB
:1002C0000C94A3C70C941FE80D948D0C0D94890C0D
:1002D0000C94AB7E0C94337F0D94AC140C9466D2CA
:1002E0000C945AC10C9410480C9464EE0C94E6BB28
:1002F0000D94A6140C9447480C942C480D94EB1ABA
:100300000D9496140D949A0C0D945E1A0C9456FE4E
:100310000D94F40F0D94B4140C9460C10D945C1002
:100320000D94A9140D94C31A0C947BBC0C94B7DDE6
:100330000D945A0A0C9426D50D947C1A0C94CDD5A4
:100340000C945FD70C94DE7F0C946CC10D94B91A99
:100350000D94850C0D947B0C0D94300C0C9418248A
:100360000C94CA7E0C9440480D9409290D94CD1A22
:100370000D9405110C9439480C9441D80D94841AAD
:100380000D94960C0D94B20C0C9433480C942BD510
:100390000D94F13A0C942F480D94A80C0C94F1D1C3
:1003A0000D94721A0C94972B0C94EEBA0D94A40C25
:1003B0000C9457CC0C94FA260C94757F0C944780BF
:1003C0000D946D110D94AF140C9476DA0C9427CD26
:1003D0004E414E494E495459494E46CDCCCC3D0A2A
:1003E000D7233C17B7D13877CC2B329595E6241F0D
:1003F000B14F0A000020410000C84200401C4620C6
:10040000BCBE4CCA1B0E5AAEC59D745A5F535445B0
:10041000505F50494E005A5F4D53325F50494E0075
:100420005A5F4D53315F50494E005A5F4D494E5F00
:1004300050494E005A5F454E41424C455F50494E2F
:10044000005A5F4449525F50494E00595F5354452A
:10045000505F50494E00595F4D53325F50494E0036
:10046000595F4D53315F50494E00595F4D494E5FC2
:1004700050494E00595F454E41424C455F50494EF0
:1004800000595F4449525F50494E00585F535445EC
:10049000505F50494E00585F4D53325F50494E00F7
:1004A000585F4D53315F50494E00585F4D494E5F84
:1004B00050494E00585F454E41424C455F50494EB1
:1004C00000585F4449525F50494E0053535F5049B2
:1004D0004E005350494E444C455F4C415345525F8A
:1004E00050574D5F50494E005350494E444C455F64
:1004F0004C415345525F454E41424C455F50494E39
:10050000005350494E444C455F4449525F50494E58
:1005100000534552564F335F50494E005345525693
:100520004F325F50494E00534552564F315F50494C
:100530004E00534552564F305F50494E005344537E
:10054000530053445F4445544543545F50494E0063
:1005500053434B5F50494E0050535F4F4E5F5049DD
:100560004E004D4F53495F50494E004D49534F5F28
:1005700050494E004C45445F50494E004C43445F47
:1005800050494E535F5253004C43445F50494E53C1
:100590005F454E41424C45004C43445F50494E53E9
:1005A0005F4437004C43445F50494E535F4436002C
:1005B0004C43445F50494E535F4435004C43445FC5
:1005C00050494E535F4434004B494C4C5F50494EA8
:1005D000004845415445525F4245445F50494E00F2
:1005E0004845415445525F325F50494E00484541AD
:1005F0005445525F315F50494E0048454154455281
:100600005F305F50494E0046414E325F50494E00C8
:1006100046414E315F50494E0046414E5F50494E73
:100620000045315F535445505F50494E0045315F9E
:100630004D53325F50494E0045315F4D53315F504D
:10064000494E0045315F454E41424C455F50494E51
:100650000045315F4449525F50494E0045305F5379
:100660005445505F50494E0045305F4D53325F5006
:10067000494E0045305F4D53315F50494E00453083
:100680005F454E41424C455F50494E0045305F4406
:1006900049525F50494E00455F4D5558325F5049B1
:1006A0004E00455F4D5558315F50494E00455F4DF6
:1006B0005558305F50494E0044494749504F5453B4
:1006C000535F50494E00434153455F4C494748549E
:1006D0005F50494E0042544E5F454E430042544ED7
:1006E0005F454E320042544E5F454E310042454513
:1006F0005045525F50494E004156525F53535F5030
:10070000494E004156525F53434B5F50494E0041A2
:1007100056525F4D4F53495F50494E004156525F0C
:100720004D49534F5F50494E0054454D505F42452F
:10073000445F50494E0054454D505F315F50494E23
:100740000054454D505F305F50494E0046494C576C
:10075000494454485F50494E00545844005258444C
:1007600000434F4D4D554E49434154494F4E00446F
:10077000525952554E004552524F525300494E461F
:100780004F004543484F002569730025696D2025BA
:100790006973002569682025696D20256973002526
:1007A0006964202569682025696D20256973002505
:1007B000697920256964202569682025696D2025CF
:1007C000697300656E7175657565696E67202200D5
:1007D0004B494C4C45442E200053544F50504544F7
:1007E0002E20005072696E7465722073746F707081
:1007F00065642064756520746F206572726F727312
:100800002E2046697820746865206572726F7220A8
:10081000616E6420757365204D39393920746F20FD
:10082000726573746172742E202854656D706572E0
:1008300061747572652069732072657365742E200A
:1008400053657420697420616674657220726573E3
:1008500074617274696E67290A004E6F204368657F
:10086000636B73756D2077697468206C696E6520A1
:100870006E756D6265722C204C617374204C696ECC
:10088000653A20004E6F20436865636B73756D2079
:1008900077697468206C696E65206E756D6265722B
:1008A0002C204C617374204C696E653A200063689B
:1008B00065636B73756D206D69736D617463682C0E
:1008C000204C617374204C696E653A20004C696E4F
:1008D00065204E756D626572206973206E6F74209D
:1008E0004C617374204C696E65204E756D62657243
:1008F0002B312C204C617374204C696E653A2000BA
:100900004D313130004D3331004732382058004DE1
:1009100032310053442072656164206572726F72D7
:100920000A00446F6E65207072696E74696E67208C
:1009300066696C650A0020496E76616C69642065A1
:100940007874727564657220000000000000000079
:10095000000000000000008C43000096430000C827
:100960004342696C696E656172204C6576656C699D
:100970006E6720477269643A0A00486F6D696E6756
:10098000206661696C6564004731205A3130204629
:1009900031323030300A4731205831352059333325
:1009A000300A4731205A302E350A4731205A31302B
:1009B00000202844525952554E29004732392041CF
:1009C00075746F20426564204C6576656C696E674E
:1009D000003F20284C2C522C462C4229206F757445
:1009E000206F6620626F756E64732E0A003F285672
:1009F000296572626F7365206C6576656C2069731A
:100A000020696D706C61757369626C652028302D8A
:100A100034292E0A00426164205A2076616C756583
:100A20000A004E6F2062696C696E656172206772A0
:100A300069640A00486F74656E6420746F6F206388
:100A40006F6C640A00286E6F2066696C652900432C
:100A5000757272656E742066696C653A2000534445
:100A6000207072696E74696E672062797465200007
:100A70004E6F74205344207072696E74696E670AF9
:100A80000044656C6574696F6E206661696C6564AD
:100A90002C2046696C653A200046696C65206465C7
:100AA0006C657465643A0043616E6E6F74206F709C
:100AB000656E207375626469722000000125301D27
:100AC0000CFF2829FF24311C0BFF4527FF232F1B78
:100AD0001EFF4443FFFFFF0403080602FF222B1AF8
:100AE0004142FF033809FF3650726F7465637465C5
:100AF000642050696E0A002020206E6F6E2D737482
:100B0000616E646172642050574D206D6F646500A2
:100B1000433A2000423A2000413A20002020202081
:100B2000434F4D00202020636F6D70617265206916
:100B30006E7465727275707420656E61626C656446
:100B4000002020206F766572666C6F7720696E7466
:100B500065727275707420656E61626C6564003ACE
:100B600020002020202054494D534B00423A2000C1
:100B7000202020205443435200413A2000202020CE
:100B80002054434352002020202043533A20002089
:100B900020202057474D3A200050574D3A2020251D
:100BA00034640050574D3A202025346400470048F3
:100BB00000000088008A008C00B300B40000009898
:100BC000009A009C00A800AA00AC0028012A012C71
:100BD000012020202054494D455200440045006E1C
:100BE00000800081006F00B000B1007000900091A3
:100BF000007100A000A100720020012101730020FB
:100C0000697320616C736F207469656420746F2050
:100C1000746869732070696E0054494D45523143C0
:100C2000000A202E002020002020506F72743A20ED
:100C3000004F7574707574203D2000496E70757496
:100C400020203D200050574D3A202025346400508C
:100C5000574D3A20202534640050574D3A20202526
:100C600034640050574D3A20202534640050574DCD
:100C70003A20202534640050574D3A202025346412
:100C80000050574D3A20202534640050574D3A20EB
:100C9000202534640050574D3A20202534640050FC
:100CA000574D3A20202534640050574D3A202025D6
:100CB00034640050574D3A20202534640050574D7D
:100CC0003A20202534640050574D3A2020253464C2
:100CD0000050574D3A20202534640050574D3A209B
:100CE000202534640020202000202020416E616CEB
:100CF0006F6720696E203D20253564003C756E7558
:100D00007365642F756E6B6E6F776E3E00202841A1
:100D100025326429202000257350494E3A2025337E
:100D2000642000416E616C6F6720696E203D202554
:100D300035640070726F74656374656420002028E8
:100D40004125326429202000257350494E3A202540
:100D5000336420005D070001590701014C07390089
:100D60004107360036073700290738001C073201D3
:100D70000F07330103073401F8063501ED064F0173
:100D8000E5064C01DD064D01D5064E01C6062E01D5
:100D9000B8062601AD061101A206100197065401FE
:100DA0008C062B017E061A0173064101680642017A
:100DB0005C06220151062A014306190138063F014B
:100DC0002D06400121062101190608011006060121
:100DD00007060201FA050901ED050701E005060114
:100DE000D1050301C8055001BC054801B005490102
:100DF000A4054A0198054B01880547017C05460179
:100E000074050D016B0532016205330158050401BB
:100E100050053401420551013D05350132051701E8
:100E2000270517011C051801110505010105200101
:100E3000E8041F01D2042D01CB043501C1043001A7
:100E4000B4041D01AA040C01A00428019604290180
:100E50008B0425018104310174041C016A040B0117
:100E600060044501560427014B04240141042F016D
:100E700034041B012A041E0120044401160443010A
:100E80000B042301446F6E652E0A0061626C656479
:100E90000A0064697300656E00656E6473746F7038
:100EA000206D6F6E69746F72200074726967676578
:100EB00072206E6F742064657465637465640A00E3
:100EC0006E6F697365206465746563746564202D55
:100ED00020706C656173652072652D72756E20746B
:100EE0006573740A00424C546F75636820636F6DBC
:100EF00070617469626C652070726F6265206465F0
:100F0000746563746564202D2070756C736520773B
:100F10006964746820282B2F2D20346D53293A20C2
:100F2000005A20536572766F2050726F626520649C
:100F3000657465637465640A00706C65617365202F
:100F4000747269676765722070726F62650A004526
:100F500052524F523A20424C544F55434820656EEE
:100F600061626C6564202D207365742074686973F8
:100F70002064657669636520757020617320612047
:100F80005A20536572766F2050726F6265207769C0
:100F9000746820696E76657274696E67206173206B
:100FA000747275652E0A002E202053544F57454405
:100FB000202874726967676572656429207374619B
:100FC00074653A204849474820286C6F6769632058
:100FD00031290A002E20204445504C4F59454420C9
:100FE00073746174653A204C4F5720286C6F6769A1
:100FF000632030290A002E202053544F57454420A7
:1010000028747269676765726564292073746174F6
:10101000653A204C4F5720286C6F67696320302950
:101020000A002E20204445504C4F594544207374EB
:101030006174653A204849474820286C6F676963A6
:101040002031290A00424C546F75636820636C6F2D
:101050006E652064657465637465640A0057415267
:101060004E494E47202D20494E56455254494E4731
:101070002073657474696E672070726F6261626C50
:1010800079206261636B77617264730A002E206459
:1010900065706C6F7920262073746F77203420740C
:1010A000696D65730A0066616C73650A002E205ACB
:1010B0005F4D494E5F454E4453544F505F494E5625
:1010C000455254494E473A20002E207573657320CF
:1010D0005A5F4D494E5F454E4453544F505F494E01
:1010E00056455254494E47202869676E6F726573A2
:1010F000205A5F4D494E5F50524F42455F454E4426
:1011000053544F505F494E56455254494E47290A51
:10111000002E2070726F62652075736573205A5FB0
:101120004D494E2070696E3A20002E202073746F56
:101130007720616E676C653A202020002E202064A5
:1011400065706C6F7920616E676C653A20002E20A7
:10115000207573696E6720696E6465783A20200097
:10116000536572766F2070726F6265207465737458
:101170000A005761746368696E672070696E730A4C
:10118000005374616E6461726420446576696174B1
:10119000696F6E3A20002052616E67653A20002028
:1011A0004D61783A2000204D696E3A20004D65610E
:1011B0006E3A200046696E6973686564210A0020F2
:1011C00072616E67653A2000206D61783A200020D8
:1011D0006D696E3A2000207369676D613A200020C6
:1011E0006D65616E3A20003A207A3A2000206F66E1
:1011F0002000205A00205900205800476F696E6770
:1012000020746F3A00436C6F636B776973650A00F3
:10121000436F756E7465722D002044697265637446
:10122000696F6E3A2000202020616E676C653A205D
:10123000005374617274696E6720726164697573BA
:101240003A2000506F736974696F6E696E6720741D
:1012500068652070726F62652E2E2E0A003F4E75F3
:101260006D626572206F66206C65677320696E2001
:101270006D6F76656D656E74206E6F7420706C6135
:10128000757369626C652028302D3135292E0A006E
:101290003F2028582C5929206F7574206F662062D2
:1012A0006F756E64732E0A003F53616D706C65201C
:1012B00073697A65206E6F7420706C6175736962F2
:1012C0006C652028342D3530292E0A004D34382005
:1012D0005A2D50726F62652052657065617461624B
:1012E000696C69747920546573740A003F28562923
:1012F0006572626F7365206C6576656C206973201A
:10130000696D706C61757369626C652028302D346D
:10131000292E0A0046696C616D656E7420757365CF
:10132000643A200053746174733A20002C204C6F8F
:101330006E67657374206A6F623A2000546F74613F
:101340006C2074696D653A200053746174733A209F
:10135000002C204661696C65643A20002C204669A7
:101360006E69736865643A20005072696E74733AEE
:10137000200053746174733A200020573A004520CE
:10138000436F6F6C696E672E2E2E00452048656195
:1013900074696E672E2E2E0020573A004265642035
:1013A000636F6F6C696E672E2E2E00426564206835
:1013B000656174696E672E2E2E00205A3A002059FE
:1013C0003A0020436F756E7420583A0020453A0069
:1013D000205A3A0020593A00583A003A00436170C6
:1013E0003A005741524E494E4721204C6F77205AC0
:1013F000204A65726B206D6179206C656164207490
:101400006F20756E77616E746564207061757365A9
:10141000732E0A00205A00205900580020204D61E8
:10142000783A2000205A00205900580020204D69A9
:101430006E3A20004F6E20004F666600536F667450
:1014400020656E6473746F70733A20003A20002038
:10145000536572766F2000206F7574206F6620725E
:10146000616E67650A00536572766F2000496E767B
:10147000616C69642065787472756465720A002015
:10148000643A0020693A0020703A004B642000233F
:10149000646566696E652044454641554C545F005D
:1014A0004B69200023646566696E652044454641AA
:1014B000554C545F004B70200023646566696E656F
:1014C0002044454641554C545F00504944204175E5
:1014D000746F74756E652066696E697368656421E2
:1014E0002050757420746865206C617374204B7093
:1014F0002C204B6920616E64204B6420636F6E73F7
:1015000074616E74732066726F6D2062656C6F77A4
:1015100020696E746F20436F6E66696775726174BF
:10152000696F6E2E680A00504944204175746F74CB
:10153000756E65206661696C6564212074696D65EE
:101540006F75740A00453120544845524D414C2076
:1015500052554E4157415900424544205448455246
:101560004D414C2052554E415741590054686572C7
:101570006D616C2052756E6177617900453120484C
:10158000656174696E67206661696C6564004265B7
:10159000642068656174696E67206661696C656462
:1015A0000048656174696E67206661696C656400F6
:1015B000504944204175746F74756E652066616989
:1015C0006C6564212054656D706572617475726517
:1015D00020746F6F20686967680A00204B643A20A6
:1015E00000204B693A2000204B703A20000A20432B
:1015F0006C617373696320504944200A002054755C
:101600003A2000204B753A2000206D61783A200086
:10161000206D696E3A200020643A200020626961E2
:10162000733A2000504944204175746F74756E659B
:101630002073746172740A00504944204175746FBC
:1016400074756E65206661696C6564212042616411
:10165000206578747275646572206E756D6265724E
:101660000A004F66660A004661646520486569673E
:1016700068742000426564204C6576656C696E670D
:1016800020004661696C656420746F20656E61623C
:101690006C6520426564204C6576656C696E670AEE
:1016A000004D65736820706F696E742063616E6EA3
:1016B0006F74206265207265736F6C7665640A00D2
:1016C0004D34323120696E636F72726563742070BD
:1016D0006172616D657465722075736167650A007A
:1016E0004F666673657473206170706C6965640021
:1016F0004572723A20546F6F206661722100546FF8
:101700006F206661722066726F6D20726566657209
:10171000656E636520706F696E740A00496E73654B
:1017200072742066696C616D656E7420616E6420F0
:10173000707265737320627574746F6E0A005072F4
:1017400065737320627574746F6E20746F206865A2
:101750006174206E6F7A7A6C650A00496E736572E7
:10176000742066696C616D656E7420616E642070B2
:101770007265737320627574746F6E20286F7220A7
:101780004D313038290A0047322F473320626164D7
:1017900020706172616D65746572730A00536C65C7
:1017A00065702E2E2E00486F6D6520585920666991
:1017B0007273740A00486F6D65205859206669720B
:1017C000737400205A3A200020593A200042656480
:1017D00020583A20004D65736820706F696E742040
:1017E00063616E6E6F74206265207265736F6C76D4
:1017F00065640A00436C69636B20746F20726573C3
:10180000756D652E2E2E004E6F206D6F76652E0045
:10181000456E642066696C65206C6973740A0042C9
:101820006567696E2066696C65206C6973740A006F
:101830004D313235005072696E742074696D653AAD
:1018400020006F66660082077D0776076F076107D5
:1018500044454255473A004B494C4C45442E2000E4
:101860004D3131332053006F6B007669766F2D70E8
:1018700072696E74657233204F66662E0054484557
:10188000524D414C5F50524F54454354494F4E00C6
:101890004155544F5245504F52545F53445F535437
:1018A0004154555300454D455247454E43595F50AD
:1018B000415253455200434153455F4C49474854B8
:1018C0005F4252494748544E45535300544F47478F
:1018D0004C455F4C494748545300534F4654574179
:1018E00052455F504F574552004255494C445F5056
:1018F000455243454E54004C4556454C494E475F72
:1019000044415441005A5F50524F424500415554A2
:101910004F4C4556454C005052494E545F4A4F4239
:101920000050524F4752455353004155544F524572
:10193000504F52545F54454D5000564F4C554D45F5
:101940005452494300454550524F4D00534552496A
:10195000414C5F584F4E5F584F4646004649524DE6
:10196000574152455F4E414D453A4D61726C696E2B
:1019700020312E312E39202847697468756229205C
:10198000534F555243455F434F44455F55524C3A80
:1019900068747470733A2F2F6769746875622E6368
:1019A0006F6D2F4D61726C696E4669726D776172F1
:1019B000652F4D61726C696E2050524F544F434FEA
:1019C0004C5F56455253494F4E3A312E30204D41CF
:1019D0004348494E455F545950453A7669766F2DD4
:1019E0007072696E7465723320455854525544457F
:1019F000525F434F554E543A3120555549443A624F
:101A0000663939303335312D633530382D3464340F
:101A1000302D616338362D39343933646438636569
:101A20006337300A002F2F20004D31343520533CCE
:101A3000696E6465783E206F7574206F66207261F0
:101A40006E67652028302D31290A0020540020526D
:101A500000416363656C65726174696F6E3A205012
:101A60000020466C6F773A200043290A0061626CBF
:101A7000656420286D696E2074656D702000436F69
:101A80006C6420657874727564657320617265207A
:101A90000020643A0020693A0020703A004E6F201E
:101AA00063617365206C696768740A00454550522C
:101AB0004F4D204F4B0A003F5A206F7574206F66C0
:101AC0002072616E676520282D323020746F2032BD
:101AD00030290A003A200050726F6265205A204F68
:101AE0006666736574003F4B2076616C7565206F88
:101AF0007574206F662072616E67652028302D3105
:101B000030292E0A00416476616E6365204B3D00EA
:101B10004163746976652045787472756465723ABC
:101B20002000496E76616C69642065787472756412
:101B300065720A00526573656E643A20006F6B002F
:101B400020746F6F206C6F6E672065787472757388
:101B5000696F6E2070726576656E7465640A002028
:101B6000636F6C6420657874727573696F6E207032
:101B7000726576656E7465640A00627573793A20E1
:101B800070617573656420666F7220696E7075741C
:101B90000A00627573793A20706175736564206616
:101BA0006F7220757365720A00627573793A2070DE
:101BB000726F63657373696E670A004B494C4C45DD
:101BC000442E20004B494C4C2063617573656420A2
:101BD0006279204B494C4C20627574746F6E2F7083
:101BE000696E0A004B494C4C45442E20004B494C31
:101BF0004C2063617573656420627920746F6F2077
:101C00006D75636820696E616374697665207469B7
:101C10006D65202D2063757272656E7420636F6D23
:101C20006D616E643A2000506C6561736520726569
:101C3000736574005052494E5445522048414C54EB
:101C40004544005072696E7465722068616C7465F9
:101C5000642E206B696C6C28292063616C6C656450
:101C6000210A000000000000000000000000000049
:101C70000048420000484200008040000000005739
:101C800061726E696E673A20486F6D696E672042B7
:101C9000756D702044697669736F72203C20310A3B
:101CA000000202040000A0400000A040000000402C
:101CB00000008C43000096430000C843FFFFFF4D27
:101CC0003630303A20546F6F20636F6C6400486F79
:101CD00074656E6420746F6F20636F6C640A007C9F
:101CE0003C3E5E2B3D3F2F5B5D3B2C2A225C00453A
:101CF00072726F722077726974696E6720746F20D8
:101D0000454550524F4D210A00454550524F4D20F8
:101D10006461746173697A65206572726F722E0AEC
:101D200000290A002062797465733B206372632086
:101D30000053657474696E67732053746F726564C1
:101D4000202800290A002062797465733B206372A1
:101D50006320002073746F72656420736574746906
:101D60006E677320726574726965766564202800F9
:101D7000202863616C63756C6174656429210A00B5
:101D800020213D2000454550524F4D2043524320D5
:101D90006D69736D61746368202D202873746F7290
:101DA00065642920002053697A653A2000496E64F1
:101DB00065783A2000204D61726C696E3D5635356C
:101DC000290A0028454550524F4D3D004545505287
:101DD0004F4D2076657273696F6E206D69736D610A
:101DE000746368200048617264636F6465642044B2
:101DF000656661756C742053657474696E677320D1
:101E00004C6F616465640A00DC050000DC050000BD
:101E100032000000DC0500000000964300009643FD
:101E20000000A0400000C8410000A0420000A04205
:101E30000000C8430000BA423A0A0020286D6D290C
:101E40000020204D36303320002055004C004669DC
:101E50006C616D656E74206C6F61642F756E6C6F54
:101E60006164206C656E677468733A0A0020204DC7
:101E7000393030204B004C696E65617220416476C8
:101E8000616E63653A0A0020204D383531205A00D2
:101E90005A2D50726F6265204F666673657400201C
:101EA000440020490020204D33303420500020448D
:101EB0000020490020204D3330312050005049444B
:101EC0002073657474696E67733A0A0020460020B7
:101ED000420020480020204D3134352053004D6110
:101EE00074657269616C20686561747570207061D9
:101EF00072616D65746572733A0A00205A00204A57
:101F00000020204732392057204900205A00202045
:101F10004D3432302053004175746F204265642087
:101F20004C6576656C696E673A0A00205A00205944
:101F30000020204D323036205800486F6D65206FEC
:101F400066667365743A0A00204500205A002059DD
:101F50000020580020540020530020204D323035FE
:101F600020420020453C6D61785F655F6A65726B59
:101F70003E0020583C6D61785F785F6A65726B3E09
:101F800020593C6D61785F795F6A65726B3E205ABB
:101F90003C6D61785F7A5F6A65726B3E0041647682
:101FA000616E6365643A20423C6D696E5F7365677C
:101FB0006D656E745F74696D655F75733E20533C2B
:101FC0006D696E5F66656564726174653E20543C40
:101FD0006D696E5F74726176656C5F66656564726B
:101FE0006174653E0020540020520020204D3230A4
:101FF00034205000416363656C65726174696F6E73
:102000002028756E6974732F7332293A20503C7002
:1020100072696E745F616363656C3E20523C7265E9
:1020200074726163745F616363656C3E20543C74D9
:10203000726176656C5F616363656C3E0A00204582
:1020400000205A0020590020204D32303120580005
:102050004D6178696D756D20416363656C65726172
:1020600074696F6E2028756E6974732F7332293A04
:102070000A00204500205A0020590020204D32300F
:10208000332058004D6178696D756D206665656413
:1020900072617465732028756E6974732F73293AA1
:1020A0000A00204500205A0020590020204D3932D6
:1020B00020580053746570732070657220756E69C6
:1020C000743A0A0020204D3230302044300A00207B
:1020D000204D3230302044002044697361626C65C9
:1020E000640A0046696C616D656E74207365747472
:1020F000696E67733A0020204D3134392043203B0C
:1021000020556E69747320696E2043656C73697520
:10211000730A002020473231202020203B007A5FC4
:102120006D696E3A2000795F6D696E3A2000785FC4
:102130006D696E3A20005265706F7274696E672027
:10214000656E6473746F70207374617475730A00C4
:1021500020746F6F206C6F6E672065787472757372
:10216000696F6E2070726576656E7465640A002012
:10217000636F6C6420657874727573696F6E20701C
:10218000726576656E7465640A0040012C01730106
:102190002201AB011801F3010E0148020401AC0257
:1021A000FA002A03F000C303E6008004DC006D059A
:1021B000D2006C06C800C707BE007009B4006D0BE2
:1021C000AA00CB0DA000CF138C00F21B7800E924ED
:1021D0006400142E50009C353C00B83A2800A03D05
:1021E00014000B3F000024F4D43050C38E20C2A250
:1021F0004017828B7011127A910D816CD90AA861F7
:10220000E108C7586607615143061E4B5D05C1458D
:10221000A7041A411104093D98037139310340366E
:10222000DB0265339102D4305402802E1D02632CF0
:10223000EE01752AC501B028A001102781018F2564
:1022400064012B244B01E0223401AC211F018D20BD
:102250000D01801FFC00841EED00971DDF00B81CDF
:10226000D200E61BC600201BBC00641AB200B219E3
:10227000A8000A19A0006A189900D1179100401708
:102280008B00B516840031167E00B31579003A151F
:102290007300C7146F0058146A00EE1366008813A9
:1022A000630025135E00C7125B006C125700151205
:1022B0005400C111510070114F0021114B00D61074
:1022C00049008D1047004610440002104200C00F24
:1022D0004000800F3E00420F3C00060F3B00CB0E3B
:1022E0003800930E37005C0E3500270E3400F30DD6
:1022F0003200C10D3100900D3000600D2E00320D06
:102300002D00050D2C00D90C2B00AE0C2900850CDE
:1023100029005C0C2700350C27000E0C2600E80B6A
:102320002400C40B2400A00B23007D0B23005A0BB8
:102330002100390B2100180B2000F80A1F00D90AD0
:102340001E00BB0A1E009D0A1D00800A1D00630AB4
:102350001C00470A1B002C0A1B00110A1A00F7096F
:102360001A00DD091900C4091900AB091900920906
:1023700017007B091800630917004C09160036097D
:102380001600200916000A091500F5081500E008D6
:102390001400CC081400B8081400A4081400900815
:1023A00013007D0812006B0813005808120046083D
:1023B000120034081100230811001208110001084E
:1023C0001100F0071000E0071000D0071000C00750
:1023D0001000B0070F00A107100091070E0083073F
:1023E0000F0074070F0065070E0057070E0049071E
:1023F0000E003B070D002E070E0020070D001307EF
:102400000D0006070D00F9060C00ED060D00E006B4
:102410000C00D4060C00C8060C00BC060C00B0066C
:102420000C00A4060B0099060C008D060B0082061A
:102430000B0077060B006C060B0061060A005706BE
:102440000B004C060A0042060A0038060A002E0657
:102450000A0024060A001A060A00100609000706E8
:102460000A00FD050900F4050900EB050900E20575
:102470000900D9050900D0050900C7050900BE05F6
:102480000900B5050800AD050800A50509009C0573
:102490000800940508008C050800840508007C05E8
:1024A0000800740508006C050700650508005D0557
:1024B0000700560508004E050700470507004005C0
:1024C000080038050700310507002A050700230525
:1024D00007001C050600160507000F050700080584
:1024E000060002050700FB040600F5040700EE04E1
:1024F0000600E8040600E2040700DB040600D50439
:102500000600CF040600C9040600C3040600BD048B
:102510000600B7040600B1040500AC040600A604DA
:102520000600A00405009B04060095040500900425
:1025300006008A04050085040500800406007A046C
:10254000050075040500700405006B0405006604B1
:102550000500610405005C040500570405005204F1
:1025600005004D04050048040500430405003E0431
:1025700004003A04050035040500300404002C046E
:10258000050027040400230405001E0404001A04A7
:10259000040016040500110404000D0404000904DD
:1025A00005000404040000040400FC030400F80314
:1025B0000400F4030400F0030400EC030400E80347
:1025C0000400E4030400E0030400DC030400D80377
:1025D0000400D4030400D0030400CC030400C803A7
:1025E0000300C503030024F404D9201BC40C5C0EB3
:1025F0009804C4095F0265077101F405F900FB0442
:10260000B30048048700C103690058035500030361
:102610004500BE023A008402310053022A0029021A
:10262000250004022000E4011C00C8011900AF01CC
:10263000170098011400840113007101100061015A
:10264000100051010E0043010D0036010B002B015B
:102650000B0020010B00150109000C01090003010A
:102660000800FB000800F3000800EB000700E4008E
:102670000600DE000600D8000600D2000600CC00EE
:102680000500C7000500C2000500BD000400B90038
:102690000400B5000400B1000400AD000400A9006E
:1026A0000400A5000300A20003009F0004009B009B
:1026B00003009800030095000200930003009000BF
:1026C00003008D0002008B000300880002008600DA
:1026D000020084000300810002007F0002007D00F0
:1026E00002007B0002007900020077000100760002
:1026F00002007400020072000100710002006F000D
:1027000002006D0001006C0002006A000100690017
:10271000020067000100660001006500010064001E
:1027200002006200010061000100600001005F0022
:1027300002005D0001005C0001005B0001005A0026
:102740000100590001005800010057000100560027
:102750000100550001005400010053000000530027
:1027600001005200010051000100500001004F0023
:1027700001004E0000004E0001004D0001004C0021
:1027800001004B0000004B0001004A00010049001D
:102790000100480000004800010047000100460019
:1027A0000000460001004500000045000100440013
:1027B000010043000000430001004200000042000D
:1027C00001004100000041000100400001003F0005
:1027D00000003F0001003E0000003E0001003D00FF
:1027E00000003D0001003C0000003C0000003C00F7
:1027F00001003B0000003B0001003A0000003A00ED
:1028000001003900000039000100380000003800E4
:1028100000003800010037000000370001003600DA
:1028200000003600000036000100350000003500D1
:1028300000003500010034000000340000003400C6
:1028400001003300000033000000330001003200BB
:1028500000003200000032000100310000003100B1
:1028600000003100010030000000300000003000A6
:1028700001002F0000002F0000002F0000002F009B
:1028800001002E0000002E0000002E0001002D008F
:1028900000002D0000002D0000002D0001002C0084
:1028A00000002C0000002C0000002C0001002B0078
:1028B00000002B0000002B0000002B0001002A006C
:1028C00000002A0000002A0000002A000100290060
:1028D0000000290000002900000029000000290054
:1028E0000100280000002800000028000000280047
:1028F000000028000100270000002700000027003A
:10290000000027000000270001002600000026002C
:10291000000026000000260000002600010025001F
:102920000000250000002500000025000000250013
:102930000000250001002400000024000000240005
:1029400000002400000024000100230000002300F8
:1029500000002300000023000000230000002300EB
:1029600000002300010022000000220000002200DD
:1029700000002200000022000000220001002100CF
:1029800000002100000021000000210000002100C3
:1029900000002100000021000100200000002000B4
:1029A00000002000000020000000200000002000A7
:1029B000000020000000200001001F0000001F0098
:1029C00000001F0000001F0000001F0000001F008B
:1029D00000001F0001001E0000001E0000001E007D
:1029E00000001E000000C23100001C260000F41987
:1029F0000000D80F0000EB080000C00400007502C2
:102A00000000400100004D6963726F73746570735C
:102A100020756E617661696C61626C650A00453192
:102A20003A200045303A20005A3A2000593A200016
:102A3000583A20004D53312C4D53322050696E735B
:102A40000A006265640A002C2073797374656D2036
:102A500073746F7070656421204865617465725F7E
:102A600049443A20004265642068656174696E6774
:102A7000206661696C65640048656174696E6720F1
:102A80006661696C65640045312048656174696EF2
:102A900067206661696C65640048656174696E678A
:102AA000206661696C65640070012C01900127014A
:102AB000B0012201C0011D01F00118011002130133
:102AC00030020E016002090190020401C002FF0001
:102AD0000003FA004003F5008003F000D003EB0090
:102AE0002004E6007004E100E004DC004005D700AB
:102AF000C005D2004006CD00D006C8008007C30044
:102B00003008BE00F008B900C009B400B00AAF0038
:102B1000B00BAA00D00CA500000EA000500F9B0027
:102B2000C01096005012910000148C00C015870050
:102B3000B0178200B0197D00D01B7800001E730012
:102B400040206E0090226900F024640040275F005E
:102B500090295A00E02B5500102E500020304B00D9
:102B600010324600E033410090353C00103737000A
:102B700070383200A0392D00B03A2800A03B230065
:102B8000603C1E00103D1900903D1400103E0F00E7
:102B9000703E0A00C03E0500003F0000403FFBFFC2
:102BA000803FF6FFC03FF1FF453120544845524D6C
:102BB000414C2052554E4157415900424544205402
:102BC0004845524D414C2052554E415741590054B1
:102BD0006865726D616C2052756E61776179004530
:102BE00031204572723A204D415854454D500045B0
:102BF00072723A204D415854454D50204245440090
:102C00004D415854454D502074726967676572652F
:102C100064004531204572723A204D494E54454D6D
:102C200050004572723A204D494E54454D50204255
:102C30004544004D494E54454D50207472696767B4
:102C400065726564004D383420582059205A20455B
:102C500000202F002042403A0020403A0025753ADB
:102C60002530327500253032753A25303275002511
:102C7000756420253032753A2530327500202020C9
:102C8000202020005A005900202020200058000950
:102C900020000000000000000000000000003FFFD6
:102CA000F00000000000000000000000003800708C
:102CB00000000000000000000000000030FC3000B8
:102CC000000000000000000000000020FC100000D8
:102CD000000000000000000000002078100000004C
:102CE0000000000000000000002030100000000084
:102CF00000000000000000002C00D03FC0000000D9
:102D0000000000002082002E31D07FE00000000093
:102D10000000001041002F7BD07FE0000000000089
:102D200000001041002F7BD07FE000000000000079
:102D3000002082002E31D03FC000000000000000C3
:102D40004104002C00D03FC00000000000000082C1
:102D500008002030107FE000000000000000820822
:102D6000002078107FE00000000000000041040017
:102D700020FC107FE00000000000000020820030F6
:102D8000FC301F8000000000000000000000380040
:102D9000700F0000000000000000FFFFC03FFFF0C8
:102DA000060000000000000000FFFFC0000000005F
:102DB00000000000000000000000003FFFF00000E5
:102DC000000000000000000000003800700000005B
:102DD000000000000000000000318630000000000C
:102DE0000000000000000000238710000000000029
:102DF0000000000000000027879000000000000095
:102E00000000000000002F87D0000000000000003C
:102E100000000000002F03D03FC0000000000000B1
:102E2000002082002030107FE00000000000000041
:102E30001041002078107FE000000000000000102A
:102E400041002078107FE000000000000000208298
:102E5000002030103FC000000000000000410400CE
:102E60002F03D03FC0000000000000008208002FA8
:102E700087D07FE000000000000000820800278764
:102E8000907FE00000000000000041040023871054
:102E90007FE0000000000000002082003186301F2B
:102EA00080000000000000000000003800700F00EB
:102EB00000000000000000FFFFC03FFFF006000020
:102EC000000000000000FFFFC00000007669766F80
:102ED0002D7072696E746572332052656164792E4B
:102EE000005072696E74696E672E2E2E00507269E2
:102EF0006E74207061757365640053746F7720423F
:102F00004C546F756368004D323830205030205378
:102F10003930004465706C6F7920424C546F756392
:102F200068004D3238302050302053313000424C50
:102F3000546F7563682053656C662D546573740017
:102F40004D323830205030205331323000526573CA
:102F5000657420424C546F756368004D32383020E0
:102F600050302053313630004D61696E004D3132A2
:102F700035004D3234005072696E742061626F7298
:102F8000746564004E6F2053442063617264005086
:102F900072696E742066726F6D2053440053746FB3
:102FA00070207072696E7400526573756D65207063
:102FB00072696E740041626F7574205072696E742C
:102FC0006572005061757365207072696E7400439C
:102FD0006F6E74726F6C0050726570617265005430
:102FE000756E6500496E666F2073637265656E006D
:102FF0004261627973746570205A004368616E673C
:10300000652066696C616D656E74004261627973FA
:10301000746570205A00466C6F7700466C6F7700BD
:1030200046616E20737065656420330046616E20D2
:10303000737065656420330046616E20737065654A
:103040006420320046616E20737065656420320032
:1030500046616E20737065656420310046616E20A4
:1030600073706565642031004265640042656400E8
:103070004E6F7A7A6C65004E6F7A7A6C65004661A5
:103080006465204865696768740046616465204826
:1030900065696768740053706565640053706565A1
:1030A00064004D61696E00507265686561742050FE
:1030B0004C4120456E640050726568656174205013
:1030C0004C4120426564005072656865617420500F
:1030D0004C410050726570617265005072656865A0
:1030E00061742041425320456E64005072656865EA
:1030F00061742041425320426564005072656865E6
:103100006174204142530050726570617265004DD8
:10311000343238004D323830205030205331363080
:1031200000424C546F7563682053656C662D54657E
:103130007374004D3238302050302053313230001B
:103140005072656865617420414253005072656831
:1031500065617420504C4100436F6F6C646F776EF3
:1031600000526573657420424C546F756368004368
:1031700068616E67652066696C616D656E74004498
:10318000697361626C652073746570706572730039
:103190004D38340053657420686F6D65206F666626
:1031A0007365747300466164652048656967687477
:1031B000004661646520486569676874004F66660B
:1031C000004F6E2000426564204C6576656C696E28
:1031D00067004C6576656C20626564004732380A8A
:1031E00047323900486F6D65205A00473238205AFF
:1031F00000486F6D65205900473238205900486FEC
:103200006D652058004732382058004175746F2092
:10321000686F6D6500473238004D6F7665206178C4
:103220006973004D61696E004D6F76652058004DE1
:103230006F76652059004D6F7665205A0045787489
:103240007275646572004D6F766520302E316D6D3C
:10325000004D6F766520316D6D004D6F76652031C4
:10326000306D6D004D6F766520617869730045782B
:10327000747275646572004D6F7665205A004D6FEB
:1032800076652059004D6F76652058004578747238
:1032900075646572004D6F7665205A004D6F7665D6
:1032A0002059004D6F76652058005072657061722C
:1032B0006500496E697469616C697A65204545509D
:1032C000524F4D00436F6E74726F6C005265737491
:1032D0006F7265206661696C73616665004C6F6131
:1032E000642073657474696E677300496E697469EC
:1032F000616C697A6520454550524F4D0053746F9B
:1033000072652073657474696E677300424C546F04
:103310007563680046696C616D656E74004D6F740D
:10332000696F6E0054656D706572617475726500C9
:103330004D61696E00507265686561742041425349
:1033400020636F6E66005072656865617420504C32
:103350004120636F6E66005049442D44005049443B
:103360002D44005049442D49005049442D490050F6
:1033700049442D50005049442D50002008204661FA
:1033800063740020082046616374002008204D61AA
:1033900078002008204D6178002008204D696E00DB
:1033A0002008204D696E004F6666004F6E20004178
:1033B00075746F74656D700046616E20737065651D
:1033C0006420330046616E207370656564203300AD
:1033D00046616E20737065656420320046616E2020
:1033E000737065656420320046616E207370656598
:1033F0006420310046616E20737065656420310081
:1034000042656400426564004E6F7A7A6C65004ED6
:103410006F7A7A6C6500436F6E74726F6C005374D0
:103420006F72652073657474696E677300426564BA
:1034300000426564004E6F7A7A6C65004E6F7A7A4E
:103440006C650046616E2073706565640046616E50
:103450002073706565640054656D70657261747584
:103460007265005654726176206D696E0056547212
:103470006176206D696E00566D696E00566D696EDD
:1034800000566D6178204500566D617820450056E4
:103490006D6178205A00566D6178205A00566D6132
:1034A00078205900566D6178205900566D6178205A
:1034B0005800566D61782058004D6F74696F6E002A
:1034C000416D6178204500416D6178204500416D76
:1034D0006178205A00416D6178205A00416D617811
:1034E000205900416D6178205900416D6178205864
:1034F00000416D6178205800412D74726176656CD1
:1035000000412D74726176656C00412D7265747294
:1035100061637400412D726574726163740041636C
:1035200063656C00416363656C004D6F74696F6E19
:103530000056652D6A65726B0056652D6A65726B63
:1035400000567A2D6A65726B00567A2D6A65726B29
:103550000056792D6A65726B0056792D6A65726B1B
:103560000056782D6A65726B0056782D6A65726B0D
:10357000004D6F74696F6E004573746570732F6DC5
:103580006D004573746570732F6D6D005A737465AB
:1035900070732F6D6D005A73746570732F6D6D00AD
:1035A0005973746570732F6D6D0059737465707302
:1035B0002F6D6D005873746570732F6D6D005873A7
:1035C000746570732F6D6D004D6F74696F6E00536D
:1035D000746570732F6D6D004A65726B0041636393
:1035E000656C65726174696F6E0056656C6F6369B6
:1035F00074790050726F6265205A204F6666736559
:10360000740050726F6265205A204F66667365744D
:1036100000436F6E74726F6C004C6F6164206D6D4F
:10362000004C6F6164206D6D00556E6C6F6164209D
:103630006D6D00556E6C6F6164206D6D0046696C38
:103640002E204469612E0046696C2E204469612E4B
:10365000004F6666004F6E20004520696E206D6D3C
:103660003300416476616E6365204B00416476618E
:103670006E6365204B00436F6E74726F6C00436124
:103680006E6E6F7420656E74657220737562646906
:10369000723A2000022E2E004D61696E00004578BE
:1036A00074727564656420746F74616C3A200025CF
:1036B0006C642E25696D00004C6F6E676573742015
:1036C0006A6F622074696D653A200000546F7461FE
:1036D0006C207072696E742074696D653A200043C5
:1036E0006F6D706C657465643A20005072696E7419
:1036F00020436F756E743A20004D61782054656DDB
:10370000703A20313035004D696E2054656D703A45
:10371000203500544265643A4550434F53203130C0
:10372000304B004D61782054656D703A203237354A
:10373000004D696E2054656D703A20350054303A62
:1037400020486973656E73005053553A2047656E83
:10375000657269630050726F746F636F6C3A2031E9
:103760002E3000426175643A2032353030303000FE
:1037700052616D626F0042696C696E656172204CC6
:103780006576656C696E67004578747275646572FC
:10379000733A203100687474703A2F2F6572796F14
:1037A0006E652E636F6D007669766F2D7072696E2F
:1037B0007465723300323031392D31312D313100A1
:1037C000312E312E39004D61726C696E0050726974
:1037D0006E74657220537461747300546865726D01
:1037E0006973746F727300426F61726420496E6610
:1037F0006F005072696E74657220496E666F004D7D
:1038000061696E004D37303220542564004D3630EA
:103810003020423020542564004D373032203B2583
:1038200064004D3730312054256400556E6C6F6153
:10383000642066696C616D656E7400556E6C6F61B5
:10384000642066696C616D656E74004D37303200BE
:103850004D373031004C6F61642066696C616D6575
:103860006E74004D363030204230004368616E6720
:10387000652066696C616D656E740050726570617B
:103880007265005052494E542050415553454400F2
:10389000554E4C4F41442046494C414D454E5400F5
:1038A0004C4F41442046494C414D454E54005075C3
:1038B000726765206D6F726500436F6E74696E7517
:1038C0006500524553554D45204F5054494F4E5376
:1038D0003A0020204E6F7A7A6C653A200063686166
:1038E0006E6765006F66207468652066696C616D3F
:1038F000656E74005761697420666F72207374611D
:1039000072740020204E6F7A7A6C653A2000200095
:1039100066696C616D656E7420756E6C6F616400B4
:103920005761697420666F720020204E6F7A7A6C3E
:10393000653A20002000506C6561736520776169ED
:10394000742E2E2E0048656174696E67206E6F7A42
:103950007A6C650020204E6F7A7A6C653A200020E0
:103960000068656174206E6F7A7A6C652E00507203
:1039700065737320627574746F6E20746F002020FD
:103980004E6F7A7A6C653A2000746F20636F6E74A4
:10399000696E75652E2E2E00616E642070726573DF
:1039A0007320627574746F6E00496E736572742053
:1039B00066696C616D656E740020204E6F7A7A6C5A
:1039C000653A2000200066696C616D656E74206C3C
:1039D0006F6164005761697420666F720020204E29
:1039E0006F7A7A6C653A2000200066696C616D65BB
:1039F0006E74207075726765005761697420666F18
:103A00007200746F20726573756D6500576169741B
:103A100020666F72207072696E7400436172642058
:103A200072656D6F766564004361726420696E73C0
:103A300065727465640000002200250028002B00D8
:103A40002E003100340002010000050108010B01C5
:103A5000000020002300260029002C002F00320047
:103A60000001000003010601090100000A0B020920
:103A70000C0D0E0807030401000000000000000008
:103A80000000000000000000000000000000000036
:103A900000000000000012111000000000000000F3
:103AA0000000000000000000000000000000000016
:103AB00000002100240027002A002D0030003300E0
:103AC00001010000040107010A0101021020200881
:103AD0000810204010204080020102010804020169
:103AE00001020408102040808040201008040201D8
:103AF0008004020180402010080402010804020131
:103B000001020408102040800102040810204080B7
:103B100005050505070508080808020202020A0A49
:103B20000808040404040101010101010101030367
:103B3000030303030303040707070C0C0C0C0C0C12
:103B40000C0C0202020206060606060606060B0B0F
:103B50000B0B0B0B0B0B0000000000000000000023
:103B60000000000000000000E00000000000000075
:103B70000000000000000003F00000000000000052
:103B80000000000000000007FC0000000000000032
:103B90000000000000000007FF000000000000001F
:103BA00000000000000000C3FFC000000000000093
:103BB00000000000000001E1FFE000000000000044
:103BC00000000000000003F07FF80000000000008B
:103BD00000000000000007F81FFE000000000000C9
:103BE0000000000000000FF807FF000000000000C8
:103BF0000000000000001FF003FE000000000000B5
:103C00000000000000003FE000FC00000000000099
:103C10000000000000007FC000380000000000002D
:103C20000000000000007F80001080000000000005
:103C30000000000000007F00000380000000000082
:103C40000000000000007E00200783FF87FF1000B7
:103C500081C0600C7FF87C00700F87FFCFFF980158
:103C600087F0700CFFFC7C01FE0F80000C019C03B0
:103C70008E38780C00007C07FC0F80000C018E074A
:103C80001C1C7C0C00007C01F00F80000C01870ED6
:103C9000180C6E0C00007C00E00F83FF8FFF83FC8C
:103CA0003006660C7FF87C00000F87FFCFFF01F81D
:103CB0003006600CFFFC7C00800F80000C0300606D
:103CC000300660CC00007C01F00F80000C018060A9
:103CD000180C60EC00007C03FC0F80000C0180607D
:103CE0001C1C607C00007C0FF80F80000C018060C1
:103CF0000E38603C00007C03E00F83FF8C01806085
:103D000007F0601C7FF87E01C00F87FFCC01806048
:103D100001C0600CFFFC7F00001F8000000000005D
:103D20000000000000007FC0003F80000000000095
:103D30000000000000007FF000FF80000000000095
:103D40000000000000003FFC01FF800000000000B8
:103D50000000000000000FFF07FF0000000000004F
:103D600000000000000003FF9FFC000000000000B6
:103D700000000000000000FF9FF8000000000000AD
:103D8000000000000000003F9FE000000000000075
:103D9000000000000000001F9F80000000000000E5
:103DA00000000000000000079F000000000000006D
:103DB00000000000000000019C0000000000000066
:103DC00000000000000000000000000000000000F3
:103DD00000000000000000000000000000000000E3
:103DE0000000000000002020506C616E6E65724281
:103DF000756666657242797465733A200020467272
:103E00006565204D656D6F72793A2000436F6D7066
:103E1000696C65643A204665622032372032303260
:103E2000320A00207C20417574686F723A20286540
:103E300072796F6E652C207468696E6B65723235AD
:103E4000363020636F6E666967290A003230313977
:103E50002D31312D313100204C6173742055706447
:103E6000617465643A2000312E312E390A004D61AB
:103E7000726C696E0020536F6674776172652052B0
:103E8000657365740A00205761746368646F672006
:103E900052657365740A002042726F776E206F75E9
:103EA000742052657365740A002045787465726EDB
:103EB000616C2052657365740A00506F77657255A6
:103EC000700A0073746172740A006175746F2569F9
:103ED0002E67006572726F722077726974696E67FF
:103EE00020746F2066696C650A00456E6473746F98
:103EF000707320256320256320256320256300201F
:103F00005A3A0020593A0020583A00656E6473749A
:103F10006F7073206869743A2000446F6E65207377
:103F20006176696E672066696C652E0A004D3239CC
:103F3000004368616E67652066696C616D656E74CB
:103F400000556E6C6F61642066696C616D656E749E
:103F5000004C6F61642066696C616D656E74005021
:103F600072656865617420414253005072656865EE
:103F7000617420504C41004368616E67652066693A
:103F80006C616D656E74004D3234004D3233202506
:103F90007300556E6B6E6F776E20636F6D6D616E23
:103FA000643A202200496E736572742066696C6100
:103FB0006D656E7420616E6420707265737320622B
:103FC0007574746F6E20286F72204D313038290A55
:103FD0000050726F62696E67206661696C65640A81
:103FE0000050726F62696E67206661696C6564007B
:103FF000205A3A200020593A200042656420583A5D
:10400000200053544F505045442E20005072696E8A
:104010007465722073746F707065642064756520B8
:10402000746F206572726F72732E204669782074E7
:104030006865206572726F7220616E6420757365A9
:10404000204D39393920746F207265737461727430
:104050002E202854656D70657261747572652069D3
:10406000732072657365742E205365742069742003
:1040700061667465722072657374617274696E67CB
:10408000290A0053544F502063616C6C65642062B0
:10409000656361757365206F6620424C546F75636C
:1040A00068206572726F72202D2072657374617260
:1040B000742077697468204D3939390A00486F6D6A
:1040C000652025732573257320666972737400203B
:1040D00066697273740A005A0059005800486F6D7F
:1040E00065200053442063617264206F6B0A006F87
:1040F00070656E526F6F74206661696C65640A004A
:10410000766F6C756D652E696E6974206661696C79
:1041100065640A00534420696E6974206661696CA5
:104120000A0057726974696E6720746F2066696C43
:10413000653A20006F70656E206661696C65642C5D
:104140002046696C653A20006F70656E2066616973
:104150006C65642C2046696C653A200046696C6584
:104160002073656C65637465640A002053697A6521
:104170003A200046696C65206F70656E65643A2070
:10418000002066696C653A2000646F696E6700669E
:1041900072657368004E6F772000454E442053557A
:1041A00042524F5554494E450A002220706F730009
:1041B0002220706172656E743A2200535542524F4C
:1041C0005554494E452043414C4C207461726765FB
:1041D000743A22004B494C4C45442E2000747279AD
:1041E000696E6720746F2063616C6C207375622D3B
:1041F00067636F64652066696C65732077697468AE
:1042000020746F6F206D616E79206C6576656C73BC
:104210002E204D4158206C6576656C2069733A00FC
:104220004572726F723A006F70656E206661696CDC
:1042300065642C2046696C653A200043616E6E6FA0
:1042400074206F70656E20737562646972200065FA
:1042500063686F3A0000060900FE070192032120FF
:104260007FFF07FF07FF00000006000001070706A9
:10427000020080808080800080030202060105A089
:10428000A00507070600005050F850F850500507E9
:10429000070600002078A07028F020050707060018
:1042A00000C0C8102040981805070706000060905D
:1042B000A040A89068020303060104C040800307E1
:1042C0000706010020408080804020030707060188
:1042D000008040202020408005050506000120A820
:1042E00070A8200505050600012020F82020020303
:1042F000030602FFC04080050101060003F8020228
:1043000002060200C0C00505050600010810204095
:104310008005070706000070888888888870030772
:104320000706010040C040404040E0050707060086
:1043300000708808708080F8050707060000F810F4
:1043400020100808F005070706000010305090F80C
:104350001010050707060000F880F00808887005AF
:104360000707060000708080F08888700507070640
:104370000000F80810202020200507070600007024
:10438000888870888870050707060000708888781C
:10439000080870020505060200C0C000C0C0020681
:1043A000060602FFC0C000C04080040707060000E8
:1043B00010204080402010050303060002F800F89A
:1043C00004070706010080402010204080050707F1
:1043D000060000708808102000200507070600006E
:1043E00070880868A8A8700507070600007088880C
:1043F000F8888888050707060000F08888F0888814
:10440000F005070706000070888080808870050727
:1044100007060000F08888888888F00507070600EE
:1044200000F88080F08080F8050707060000F8801B
:1044300080F0808080050707060000708880B888BB
:104440008870050707060000888888F88888880132
:1044500007070602008080808080808005070706AD
:104460000000381010101090600507070600008843
:1044700090A0C0A09088050707060000808080807B
:104480008080F805070706000088D8A888888888F3
:104490000507070600008888C8A8988888050707C8
:1044A0000600007088888888887005070706000065
:1044B000F08888F0808080050707060000708888F3
:1044C00088A89068050707060000F08888F0A0908B
:1044D00088050707060000788080700808F0050747
:1044E00007060000F82020202020200507070600EE
:1044F00000888888888888700507070600008888F3
:1045000088888850200507070600008888888888E2
:10451000A8500507070600008888502050888805A5
:104520000707060000888888502020200507070616
:104530000000F80810204080F8030707060100E09B
:104540008080808080E00505050600018040201005
:1045500008030707060100E02020202020E00503D3
:1045600003060004205088050101060000F802023D
:1045700002060205804005050506000070087888DF
:10458000780507070600008080B0C88888F0050518
:104590000506000070808088700507070600000887
:1045A0000868988888780505050600007088F880F6
:1045B000700507070600003048E04040404005060F
:1045C000060600FF70888878087005070706000057
:1045D0008080B0C8888888010707060200800080B4
:1045E000808080800308080601FF20002020202012
:1045F000A040040707060000808090A0C0A09003A0
:104600000707060100C04040404040E005050506A0
:104610000000D0A8A8A8A8050505060000B0C88815
:1046200088880505050600007088888870050606DC
:104630000600FFF08888F080800506060600FF78F7
:104640008888780808050505060000B0C8808080C5
:1046500005050506000070807008F00407070600D5
:10466000004040E0404040300505050600008888D5
:10467000889868050505060000888888502005058B
:10468000050600008888A8A85005050506000088D2
:10469000502050880506060600FF88888878087034
:1046A000050505060000F8102040F803070706017D
:1046B0000020404080404020010707060200808023
:1046C00080808080800307070601008040402040F2
:1046D000408005020206000268900000000600000B
:1046E00000060900FE000000000001090008FE00AD
:1046F0000005080806000040F0C888889878100572
:104700000808060000C0F88888888888F80505052C
:104710000600012030F8302005080806000020704F
:10472000F820202020E00509090600FF2070A8A835
:10473000B8888870200509090600FFE080C0B0A88D
:10474000283028280509090600FFF8A888888888E5
:1047500088A8F8050A0A0600FE205050505088A884
:10476000A8887003030306000340A040C801E400CA
:1047700011241FBECFEFD1E2DEBFCDBF00E00CBFE2
:1047800013E0A0E0B2E0E4EDFDE902E00BBF02C0FF
:1047900007900D92AE3AB107D9F726E1AEEAB3E041
:1047A00001C01D92A139B207E1F713E2C7EBD3E2D2
:1047B00000E006C021970109802FFE010F944A4EA8
:1047C000C63BD10780E00807A9F70F94F83B0D948A
:1047D000D84E0C940000CF93DF9390916F00292F57
:1047E000227091FF05C090916F009D7F90936F00A4
:1047F00094E0899FA0011124FA01EB57F04F6081EA
:10480000718182819381222329F020916F0022609F
:1048100020936F00EA01CF54D44F0F948246288131
:1048200039814A815B810F94E146DF91CF910895F0
:10483000CF92DF92EF92FF928091410C882309F48E
:1048400057C0C0903D0CD0903E0CE0903F0CF090D3
:10485000400C20E030E0A901C701B6010F947B466F
:10486000882309F445C020E030E040E05FE3C70161
:10487000B6010F94E1469B01AC010F94E1462BED8C
:104880003FE049E450E40F94E1469B01AC0160E055
:1048900070E080E89FE30F94FE4B6B017C01C092B7
:1048A000C70BD092C80BE092C90BF092CA0B609173
:1048B000270270912802072E000C880B990B0F9489
:1048C00082462AE037ED43E25CE30F94E146A7011C
:1048D00096010F94E1466093230270932402809323
:1048E000250290932602FF90EF90DF90CF900895DD
:1048F000C12CD12C80E8E82E8FE3F82ED0CF8F92F8
:104900009F92AF92BF92CF92DF92EF92FF92CF939E
:10491000DF93EC018090A80B9090A90BA090AA0BBC
:10492000B090AB0B20E030E0A901C501B4010F94B9
:104930007B46882309F452C0C880D980EA80FB8076
:10494000A7019601C501B4010F947B4618160CF01F
:104950004AC02091A1053091A2054091A305509134
:10496000A405C701B6010F947B46882321F1C092AC
:10497000A105D092A205E092A305F092A405209192
:104980009D0530919E0540919F055091A005C7015E
:10499000B6010F94E1469B01AC0160E070E080E855
:1049A0009FE30F94034B60930F0270931002809368
:1049B00011029093120260910F0270911002809187
:1049C000110290911202DF91CF91FF90EF90DF9052
:1049D000CF90BF90AF909F908F90089560E070E06F
:1049E00080E89FE3F0CF60E070E0CB01ECCFCF92A6
:1049F000DF92EF92FF92CF93DF93EC01C090D00B48
:104A0000D090D10BE090D20BF090D30BA701960180
:104A1000688179818A819B810F947B4687FF04C0DE
:104A2000C882D982EA82FB82C090D40BD090D50B89
:104A3000E090D60BF090D70BA70196016C817D8199
:104A40008E819F810F947B4687FF04C0CC82DD82DC
:104A5000EE82FF82C0902B02D0902C02E0902D02BB
:104A6000F0902E02A7019601688179818A819B814D
:104A70000F94644D181624F4C882D982EA82FB820E
:104A8000C0902F02D0903002E0903102F0903202BC
:104A9000A70196016C817D818E819F810F94644D69
:104AA000181624F4CC82DD82EE82FF82C090D80BEF
:104AB000D090D90BE090DA0BF090DB0BA7019601B8
:104AC000688579858A859B850F947B4687FF04C01E
:104AD000C886D986EA86FB86C0903302D09034021D
:104AE000E0903502F0903602A7019601688579853D
:104AF0008A859B850F94644D181624F4C886D98640
:104B0000EA86FB86DF91CF91FF90EF90DF90CF9008
:104B10000895179A8091620F8E7F8093620F169A84
:104B20008091620F8D7F8093620F159A8091620F42
:104B30008B7F8093620F149A0895CF93DF9380E068
:104B40000E94EB23CFEFD4E0688379838A839B8331
:104B500081E00E94EB236C837D838E839F8382E0C0
:104B60000E94EB23688779878A879B87DF91CF91A3
:104B70000895082E000C990BFC01E05FF44CE491C1
:104B8000EE2391F0F0E0EE0FFF1FE05BF54CA591F6
:104B9000B4912C918653954CFC018491282381E09B
:104BA00090E021F480E0089580E090E00895082EE0
:104BB000000C990BFC01E05FF44CE491F0E0EE0F87
:104BC000FF1FE055F54CA591B4912C918653954C5F
:104BD000FC018491822391E009F490E0892F0895EB
:104BE000EBEBFAE09491981739F031969AE0E83EB1
:104BF000F907C1F780E0089581E00895CF92DF9230
:104C0000EF92FF926091CB0B7091CC0B072E000CB2
:104C1000880B990B0F9482466B017C012DEB37E3D7
:104C200046E855EB0F94644D87FD0BC02DEB37E341
:104C300046E855E3C701B6010F947B4618160CF001
:104C400043C0A701960160E070E080E89FE30F9405
:104C5000FE4B6093F7047093F8048093F9049093EB
:104C6000FA046091CD0B7091CE0B072E000C880BCF
:104C7000990B0F9482466B017C012DEB37E346E8DC
:104C800055EB0F94644D87FD0AC02DEB37E346E8E2
:104C900055E3C701B6010F947B461816CCF4A70163
:104CA000960160E070E080E89FE30F94FE4B609314
:104CB000FB047093FC048093FD049093FE04FF902A
:104CC000EF90DF90CF90089560E070E0CB01C1CF0E
:104CD00060E070E0CB01EBCF8091190490911A0451
:104CE000A0911B04B0911C04809363029093640212
:104CF000A0936502B0936602809117049091180406
:104D000090932A02809329020895809163029091E2
:104D10006402A0916502B091660280931904909399
:104D20001A04A0931B04B0931C0480912902909153
:104D30002A02909318048093170484E690E09093DD
:104D40002A028093290208950F931F93CF93DF9334
:104D500094E0899FE00111248E010D59104FFE014E
:104D6000E559F24FDE01AA5BBA4F2D913D914D916D
:104D70005C9160817181828193810F94044BF80171
:104D80006083718382839383FE01E75BF64F859195
:104D90009591A591B491FE01E053F44F80839183E6
:104DA000A283B383FE01EB5AF64F85919591A591AD
:104DB000B491C55DDD4F88839983AA83BB83DF915E
:104DC000CF911F910F91089590917B0DE92FF0E005
:104DD000E958F24F80839F5F943040F490937B0DAD
:104DE0008091FE0E8F5F8093FE0E089510927B0DD2
:104DF000F7CF089590E080E0089580E1E3E7FFE0D9
:104E0000A8E3BFE001900D928A95E1F7089580E153
:104E1000E8E3FFE0A3E7BFE001900D928A95E1F798
:104E200008958091D1049091D2042FEF3FEF98170D
:104E300051F0E92FF0E0EF5AFB4F208130E09F5F07
:104E40009F779093D204C90108954F925F926F9219
:104E50007F928F929F92AF92BF92CF92DF92EF920A
:104E6000FF92CF93DF93CDB7DEB76A970FB6F89472
:104E7000DEBF0FBECDBF9A8F898F5B014A01FC0157
:104E8000EE5BFF4F60817181828193810F94804638
:104E90006B017C01D5012D913D914D915C910F9459
:104EA000E1460F94E24B0F94774C3B015C01F40117
:104EB0002081318142815381C701B6010F94E146BF
:104EC0000F94E24B0F94774C6D827E82AF82B8864E
:104ED0002D813E814F815885283731054105510587
:104EE00040F428E730E040E050E02D833E834F83DC
:104EF000588769837A838B839C8389819A81AB816C
:104F0000BC8188379105A105B10540F428E730E060
:104F100040E050E029833A834B835C83E98DFA8D2E
:104F2000E25BFF4F80819181A281B38189879A875B
:104F3000AB87BC87BC01CD010F9482462B013C019D
:104F40006D817E818F8198850F948046698B7A8BE5
:104F50008B8B9C8B20E030E0A901C301B2010F9440
:104F60007B46882309F43EC1A7019601C701B6011B
:104F70000F94E1464B015C0129893A894B895C8990
:104F8000CA01B9010F94E1469B01AC01C501B4010E
:104F90000F94034B4B015C01A3019201C301B201C9
:104FA0000F94044B9B01AC01C501B4010F94FE4B5F
:104FB0000F94E24B0F94774C6D877E878F87988B89
:104FC00069857A858B859C8590958095709561958E
:104FD0007F4F8F4F9F4F0F9482464B015C01698139
:104FE0007A818B819C810F94804669877A878B8731
:104FF0009C8720E030E0A901C501B4010F947B46F5
:10500000882309F4F3C029853A854B855C85CA015C
:10501000B9010F94E1466D8B7E8B8F8B988FA70122
:105020009601C701B6010F94E1469B01AC016D8961
:105030007E898F89988D0F94034B6B017C01A501AC
:105040009401C501B4010F94044B9B01AC01C7014D
:10505000B6010F94FE4B0F94A64CA98DBA8D959670
:105060008D909D90AD90BC909897750164012D85B1
:105070003E854F855889C21AD30AE40AF50A0F946F
:10508000774CC61AD70AE80AF90AF7FE6EC020E084
:1050900030E0A901C301B2010F947B46882309F4D3
:1050A000A9C0C501B4010F9480466B017C01A30126
:1050B0009201C301B2010F94044B9B01AC01C701E3
:1050C000B6010F94E1466B017C0129893A894B892D
:1050D0005C89CA01B9010F94E1469B01AC01C7018B
:1050E000B6010F94034B6B017C0129853A854B85F2
:1050F0005C85CA01B9010F94E1469B01AC01C7016F
:10510000B6010F94044B6B017C0120E030E040E8D5
:1051100050E4C301B2010F94E1469B01AC01C70109
:10512000B6010F94FE4B0F94E24B6B017C0120E023
:1051300030E0A9010F94644D18161CF0C12CD12C3D
:105140007601C701B6010F94774C6D877E878F87F4
:10515000988B86169706A806B90620F48D869E863B
:10516000AF86B88AC12CD12C76018D859E85AF85FE
:10517000B889E98DFA8D82A793A7A4A7B5A7C80E11
:10518000D91EEA1EFB1EDF01C6A6D7A6E0AAF1AA19
:10519000EA5BFF4F2D813E814F815885208331830B
:1051A00042835383A65BBF4FFD0189819A81AB8106
:1051B000BC8180839183A283B3836A960FB6F894EF
:1051C000DEBF0FBECDBFDF91CF91FF90EF90DF909C
:1051D000CF90BF90AF909F908F907F906F905F9097
:1051E0004F90089560E070E0CB01E2CE60E070E0A7
:1051F000CB0131CF60E070E0CB0195CF4F925F9251
:105200006F927F928F929F92AF92BF92CF92DF92D6
:10521000EF92FF920F931F93CF93DF93EC01609176
:10522000520570915305072E000C880B990B0F94B3
:1052300082469B01AC01688179818A819B810F94B0
:10524000034B6B017C016091540570915505072E4D
:10525000000C880B990B0F9482469B01AC016C816A
:105260007D818E819F810F94034B4B015C01A701CF
:105270009601609106027091070280910802909158
:1052800009020F947B46882309F459C0C092060294
:10529000D0920702E0920802F09209022091F704EE
:1052A0003091F8044091F9045091FA04C701B60115
:1052B0000F94E1462B013C010F94A64C6B017C013D
:1052C00020E030E0A9010F947B4687FD79C020E003
:1052D00030E040E450E4C701B6010F94644D181665
:1052E0002CF4C12CD12CA0E4EA2EFE2CA7019601AF
:1052F000C301B2010F94034B2B013C0120E030E0CD
:10530000A9010F947B4687FD5FC04092F304509241
:10531000F4046092F5047092F604C701B6010F948C
:10532000704C6093F204062E000C770B6F5F7F4F7A
:105330006330710514F063E070E06093F104D09184
:105340000102C091F204A5019401609102027091E2
:10535000030280910402909105020F947B46811113
:105360003CC0DC1393C02091D3043091D40440910D
:10537000D5045091D6046091F3047091F4048091A7
:10538000F5049091F6040F94E1462091D7043091F2
:10539000D8044091D9045091DA040F94044BDF9162
:1053A000CF911F910F91FF90EF90DF90CF90BF9022
:1053B000AF909F908F907F906F905F904F900895E7
:1053C000C12CD12C760192CF1092F3041092F404E8
:1053D0001092F5041092F604A0CF809202029092EF
:1053E0000302A0920402B09205022091FB043091C6
:1053F000FC044091FD045091FE04C501B4010F94DA
:10540000E1464B015C010F94A64C6B017C0120E04E
:1054100030E0A9010F947B4687FDF9C020E030E021
:1054200040E450E4C701B6010F94644D18162CF403
:10543000C12CD12CF0E4EF2EFE2CA7019601C50162
:10544000B4010F94034B4B015C0120E030E0A90153
:105450000F947B4687FDDFC08092ED049092EE04AE
:10546000A092EF04B092F004C701B6010F94704C03
:105470006093EC04062E000C770B6F5F7F4F633058
:10548000710514F063E070E06093EB040091EC04AC
:10549000DC1305C080910002801709F46DC0C09331
:1054A000010200930002002E000C110B24E0C20246
:1054B000C0011124FC01E00FF11FEE0FFF1FEE0FE2
:1054C000FF1FE45AFA4F208131814281538120939A
:1054D000E7043093E8044093E9045093EA04C09150
:1054E000EB040C2E000CDD0BFC01EC0FFD1FEE0F8E
:1054F000FF1FEE0FFF1FE45AFA4F60817181828116
:1055000093810F94034B6093E3047093E4048093BE
:10551000E5049093E6048091F10424E08202C00146
:105520001124FC01E00FF11FEE0FFF1FEE0FFF1F14
:10553000E45AFA4F20813181428153812093DF0464
:105540003093E0044093E1045093E204C80FD91F64
:10555000CC0FDD1FCC0FDD1FC45ADA4F6881798173
:105560008A819B810F94034B6093DB047093DC046E
:105570008093DD049093DE048090ED049090EE041F
:10558000A090EF04B090F0042091E3043091E40483
:105590004091E5045091E604C501B4010F94E14641
:1055A0002091E7043091E8044091E9045091EA0425
:1055B0000F94044B6B017C01C092D704D092D804A5
:1055C000E092D904F092DA042091DB043091DC04FB
:1055D0004091DD045091DE04C501B4010F94E14611
:1055E0002091DF043091E0044091E1045091E20405
:1055F0000F94044BA70196010F94034B6093D304BF
:105600007093D4048093D5049093D604ACCEC12C6F
:10561000D12C760112CF1092ED041092EE0410926C
:10562000EF041092F00420CFCF92DF92EF92FF921E
:10563000CF93DF932091CF0B222329F1EC01089621
:105640000E947F246B017C0120E030E0A9010F94CF
:105650007B4620E030E0A901882359F0CE010E946A
:10566000FE289B01AC01C701B6010F94E1469B01E6
:10567000AC01688579858A859B850F94034B688783
:1056800079878A879B87DF91CF91FF90EF90DF909A
:10569000CF9008958F929F92AF92BF92CF92DF9258
:1056A000EF92FF920F93CF93DF931F92CDB7DEB7A8
:1056B0006C017B014901809156055B01A40EB51E6A
:1056C0008823A1F0F60180819181480F591F5183F1
:1056D00040830F90DF91CF910F91FF90EF90DF907B
:1056E000CF90BF90AF909F908F900895F6018081EA
:1056F00091810F94584A898390915705992311F00D
:10570000002311F0F7018083BE016F5F7F4FC4015A
:105710000F946714F60180819181019691838083B3
:10572000FFEFEF1AFF0AEA14FB0401F7D2CF0F9341
:105730001F93CF93DF93EC010F94401B0E811F81C9
:1057400028853985011511052105310579F52C8547
:10575000222339F1EA8521502C8721E02E0F2A8758
:105760003D85231301C01A86F0E03196EE0FFF1F2E
:10577000EE0FFF1FEC0FFD1F028513852485358575
:105780000A831B832C833D83600F711F811D911D34
:105790006E837F83888799878C819D81892B09F00F
:1057A000769ADF91CF911F910F910895601B710B35
:1057B000820B930B97FDF5CF76981E821F82188679
:1057C0001986EFCF0F94401B60932105709322053B
:1057D000809323059093240508958091AE039091C2
:1057E000AF03009731F04AE050E070E060E00D94C4
:1057F0008E4360E070E0CB0108950E94ED2B97FD91
:105800000CC00E94ED2B6F3F71058105910509F0D9
:1058100034F40E94ED2B862F089580E008958FEFD9
:1058200008958091AE039091AF03892B41F00E94BF
:10583000FD2B91E0811101C090E0892F089591E046
:10584000FCCF8091AE039091AF03009731F04AE016
:1058500050E070E060E00D94BC4460E070E0CB018B
:105860000895CF93DF9390916F00292F227091FFBD
:1058700005C090916F009D7F90936F0094E0899F89
:10588000A0011124FA01E657F44F608171818281F1
:105890009381222329F020916F00226020936F00D2
:1058A000EA01CF54D44F0F948246288139814A812E
:1058B0005B810F94E146DF91CF9108958F929F9283
:1058C000AF92BF92CF92DF92EF92FF920F931F930E
:1058D000CF93DF93CDB7DEB72C970FB6F894DEBF2A
:1058E0000FBECDBF2091CF0B222309F442C08A0105
:1058F0007B016C01CA010E947F244B015C01198667
:105900001A861B861C86F60180819181A281B38153
:1059100089839A83AB83BC83F70180819181A281C3
:10592000B3818D839E83AF83B88720E030E0A901E7
:10593000C501B4010F947B4620E030E0A901882323
:1059400061F0CE0101960E94FE289B01AC01C501C9
:10595000B4010F94E1469B01AC01F80160817181B3
:10596000828193810F94044BF80160837183828359
:1059700093832C960FB6F894DEBF0FBECDBFDF9198
:10598000CF911F910F91FF90EF90DF90CF90BF903C
:10599000AF909F908F90089580916F00982F927094
:1059A00081FF05C080916F008D7F80936F00109202
:1059B000430D1092440D1092450D1092460D9923FF
:1059C00029F080916F00826080936F00089580912C
:1059D000690D811105C080916A0D882309F45BC0AF
:1059E00080919C051E9951C0816080939C05809197
:1059F0009C051D994CC0826080939C0580919C05FC
:105A0000379947C08B7F80939C058091880B80FFDE
:105A100010C08091870B80FF0CC080919C0580FF97
:105A200008C080917C0D816080937C0D80E00E9495
:105A3000CAF18091880B81FF10C08091870B81FF94
:105A40000CC080919C0581FF08C080917C0D826014
:105A500080937C0D81E00E94CAF18091880B82FFC7
:105A60001AC08091870B82FF16C080916A0D88232F
:105A700091F080919C0582FF0EC080917C0D846026
:105A800080937C0D82E00C94CAF18E7FAECF8D7F27
:105A9000B3CF8460B8CF08952BE1FB013496DC01CD
:105AA000149601900D922A95E1F7FB012281338132
:105AB000FC01338322832AE333E03183208308957A
:105AC000FC0120E03EE2DB014D91BD01403249F096
:105AD000283011F430833196DB0111974C914083CB
