:020000040000FA
:100000000C94A4230C94D5230C94D5230C94D523C1
:100010000C94D5230C94D5230C94D5230C94D52380
:100020000C94D5230C94D5230C94D5230C94D52370
:100030000C94D5230C94D5230C94D5230C94D52360
:100040000C94D5230C94EBF10C94D5230C94D5236C
:100050000C94D5230C94D5230C9484E70D94A61D01
:100060000C94D5230C9492BA0C94D5230C94D523DC
:100070000C94D5230C94D5230C94D5230C94D52320
:100080000C9495FB0C94D5230C94D5230C94D52378
:100090000C94D5230C94D5230C94D5230C94D52300
:1000A0000C94D5230C94D5230C9467FB0C94D52386
:1000B0000C94D5230C94D5230C94D5230C9439FBA4
:1000C0000C94D5230C94D5230C94D5230C94D523D0
:1000D0000C94D5230C94D5230C94D5230C94D523C0
:1000E0000C94D523084AD73B3BCE016E84BCBFFDA0
:1000F000C12F3D6C74319ABD56833DDA3D00C77FF8
:1001000011BED9E4BB4C3E916BAAAABE0000008090
:100110003F05A84CCDB2D44EB93836A9020C50B91F
:10012000918688083CA6AAAA2ABE000000803F004B
:100130000C941B480D94090F0C9456800C9407489E
:100140000C94F7BB0D94202C0C943AD70C9446BE1B
:100150000C944BC10C9412C30C948DBB0C94D3BA69
:100160000C9400E20D9448000C94847F0D94851A41
:100170000C9406D50D94611A0C94F7470D948D0CD0
:100180000D94A10E0C9429480D946E0C0D945F2AC9
:100190000C940A480D94A50C0D947B0C0C941448F7
:1001A0000C94D6D10C943CCC0D949E140D944D1A05
:1001B0000D948B140C94A77F0C941ECA0C941848B1
:1001C0000D948F1A0C9404E80C9488BE0C945BDA9E
:1001D0000D9499140D94710F0D948E140C947DD17F
:1001E0000D94D63A0C9482C10D94970C0C9490BB4C
:1001F0000C943FD70D9424000C9401D50D94D90F85
:100200000C94617F0C94CBBB0C9479800D94881472
:100210000C9410800C94B67E0C94CBBC0C948EBEC7
:100220000D949B140C940CCD0C9445C10D94B21AF2
:100230000D943E1A0D94600C0C94ABBE0C94ED7FA3
:100240000C9425480C944BD20C9436480C94BCBAB0
:100250000C9433800D94A9100D94260D0C9444D762
:100260000D94850C0D947B140C9488C70D94A00CF0
:100270000C94CA7F0C943BFE0C940E480C943FC126
:100280000C9404240C94787E0C949CDD0D94D01A6C
:100290000C94832B0C94D7DE0D94120C0C94C6FF97
:1002A0000C940BD50D9428260C941F7F0C9416C922
:1002B0000C942F480D9494140D949B0C0C9451C1E4
:1002C0000D947B1A0C948BC70D9419390D94431A15
:1002D0000D9421000C94FC7E0D94140C0C948CCA8B
:1002E0000C948ABB0D9465250C948EC70D94A10CBB
:1002F0000D94C61A0D9485140D94750C0C94C7BCFE
:100300000D94A81A0C9460BC0C94B2D50C94F2C352
:100310000C9426D80D94EE230D94172B0D944110B8
:100320000C94E7E80C94EABA0D94571A0C94977E53
:100330000D94691A0C94CFBE0C9407DC0C9449D729
:100340000C94407F0D94720C0C9422480D949114DF
:100350000C94E6260D94E2160C94FAD00C94D97EF7
:100360000D94890C0D948E220D94930C0C9449EEEF
:100370000C9459BE0D94361A0D947F0C0C9410D524
:100380000D94EA100D94711A0C94FC470D94660CB0
:100390000C949B800C946CCB0D94BC1A0D946A0C3D
:1003A0000C941F480C94E5260C9493BB0D949E1A54
:1003B0000C9447340C942C480D94150C0C94334831
:1003C0000D9452110C9411480D94EE280D943F0A8F
:1003D0004E414E494E495459494E46CDCCCC3D0A2A
:1003E000D7233C17B7D13877CC2B329595E6241F0D
:1003F000B14F0A000020410000C84200401C4620C6
:10040000BCBE4CCA1B0E5AAEC59D745A5F535445B0
:10041000505F50494E005A5F4D53325F50494E0075
:100420005A5F4D53315F50494E005A5F4D494E5F00
:1004300050494E005A5F454E41424C455F50494E2F
:10044000005A5F4449525F50494E00595F5354452A
:10045000505F50494E00595F4D53325F50494E0036
:10046000595F4D53315F50494E00595F4D494E5FC2
:1004700050494E00595F454E41424C455F50494EF0
:1004800000595F4449525F50494E00585F535445EC
:10049000505F50494E00585F4D53325F50494E00F7
:1004A000585F4D53315F50494E00585F4D494E5F84
:1004B00050494E00585F454E41424C455F50494EB1
:1004C00000585F4449525F50494E0053535F5049B2
:1004D0004E005350494E444C455F4C415345525F8A
:1004E00050574D5F50494E005350494E444C455F64
:1004F0004C415345525F454E41424C455F50494E39
:10050000005350494E444C455F4449525F50494E58
:1005100000534552564F335F50494E005345525693
:100520004F325F50494E00534552564F315F50494C
:100530004E00534552564F305F50494E005344537E
:10054000530053445F4445544543545F50494E0063
:1005500053434B5F50494E0050535F4F4E5F5049DD
:100560004E004D4F53495F50494E004D49534F5F28
:1005700050494E004C45445F50494E004C43445F47
:1005800050494E535F5253004C43445F50494E53C1
:100590005F454E41424C45004C43445F50494E53E9
:1005A0005F4437004C43445F50494E535F4436002C
:1005B0004C43445F50494E535F4435004C43445FC5
:1005C00050494E535F4434004B494C4C5F50494EA8
:1005D000004845415445525F4245445F50494E00F2
:1005E0004845415445525F325F50494E00484541AD
:1005F0005445525F315F50494E0048454154455281
:100600005F305F50494E0046414E325F50494E00C8
:1006100046414E315F50494E0046414E5F50494E73
:100620000045315F535445505F50494E0045315F9E
:100630004D53325F50494E0045315F4D53315F504D
:10064000494E0045315F454E41424C455F50494E51
:100650000045315F4449525F50494E0045305F5379
:100660005445505F50494E0045305F4D53325F5006
:10067000494E0045305F4D53315F50494E00453083
:100680005F454E41424C455F50494E0045305F4406
:1006900049525F50494E00455F4D5558325F5049B1
:1006A0004E00455F4D5558315F50494E00455F4DF6
:1006B0005558305F50494E0044494749504F5453B4
:1006C000535F50494E00434153455F4C494748549E
:1006D0005F50494E0042544E5F454E430042544ED7
:1006E0005F454E320042544E5F454E310042454513
:1006F0005045525F50494E004156525F53535F5030
:10070000494E004156525F53434B5F50494E0041A2
:1007100056525F4D4F53495F50494E004156525F0C
:100720004D49534F5F50494E0054454D505F42452F
:10073000445F50494E0054454D505F315F50494E23
:100740000054454D505F305F50494E0046494C576C
:10075000494454485F50494E00545844005258444C
:1007600000434F4D4D554E49434154494F4E00446F
:10077000525952554E004552524F525300494E461F
:100780004F004543484F002569730025696D2025BA
:100790006973002569682025696D20256973002526
:1007A0006964202569682025696D20256973002505
:1007B000697920256964202569682025696D2025CF
:1007C000697300656E7175657565696E67202200D5
:1007D0004B494C4C45442E200053544F50504544F7
:1007E0002E20005072696E7465722073746F707081
:1007F00065642064756520746F206572726F727312
:100800002E2046697820746865206572726F7220A8
:10081000616E6420757365204D39393920746F20FD
:10082000726573746172742E202854656D706572E0
:1008300061747572652069732072657365742E200A
:1008400053657420697420616674657220726573E3
:1008500074617274696E67290A004E6F204368657F
:10086000636B73756D2077697468206C696E6520A1
:100870006E756D6265722C204C617374204C696ECC
:10088000653A20004E6F20436865636B73756D2079
:1008900077697468206C696E65206E756D6265722B
:1008A0002C204C617374204C696E653A200063689B
:1008B00065636B73756D206D69736D617463682C0E
:1008C000204C617374204C696E653A20004C696E4F
:1008D00065204E756D626572206973206E6F74209D
:1008E0004C617374204C696E65204E756D62657243
:1008F0002B312C204C617374204C696E653A2000BA
:100900004D313130004D3331004732382058004DE1
:1009100032310053442072656164206572726F72D7
:100920000A00446F6E65207072696E74696E67208C
:1009300066696C650A0020496E76616C69642065A1
:10094000787472756465722000000000000000A0D9
:10095000C00000000000008C43008093430000C8EA
:100960004342696C696E656172204C6576656C699D
:100970006E6720477269643A0A00486F6D696E6756
:10098000206661696C656400202844525952554EB6
:100990002900473239204175746F20426564204C2C
:1009A0006576656C696E67003F20284C2C522C469A
:1009B0002C4229206F7574206F6620626F756E64FB
:1009C000732E0A003F2856296572626F7365206C8A
:1009D0006576656C20697320696D706C61757369EB
:1009E000626C652028302D34292E0A004261642073
:1009F0005A2076616C75650A004E6F2062696C69D9
:100A00006E65617220677269640A00486F74656E72
:100A10006420746F6F20636F6C640A00286E6F200F
:100A200066696C65290043757272656E742066692B
:100A30006C653A20005344207072696E74696E6769
:100A4000206279746520004E6F74205344207072C8
:100A5000696E74696E670A0044656C6574696F6ECF
:100A6000206661696C65642C2046696C653A2000DB
:100A700046696C652064656C657465643A00436121
:100A80006E6E6F74206F70656E207375626469722C
:100A90002000000125301D0CFF2829FF24311C0BEC
:100AA000FF4527FF232F1B1EFF4443FFFFFF0403C7
:100AB000080602FF222B1A4142FF033809FF365075
:100AC000726F7465637465642050696E0A0020203B
:100AD000206E6F6E2D7374616E6461726420505766
:100AE0004D206D6F646500433A2000423A2000417A
:100AF0003A200020202020434F4D00202020636F0B
:100B00006D7061726520696E7465727275707420A3
:100B1000656E61626C6564002020206F7665726688
:100B20006C6F7720696E7465727275707420656E73
:100B300061626C6564003A20002020202054494DF9
:100B4000534B00423A2000202020205443435200BF
:100B5000413A2000202020205443435200202020EE
:100B60002043533A20002020202057474D3A2000B0
:100B700050574D3A20202534640050574D3A2020DC
:100B80002534640047004800000088008A008C007B
:100B9000B300B400000098009A009C00A800AA00CE
:100BA000AC0028012A012C012020202054494D4569
:100BB0005200440045006E00800081006F00B000CC
:100BC000B1007000900091007100A000A1007200BF
:100BD00020012101730020697320616C736F207400
:100BE00069656420746F20746869732070696E0091
:100BF00054494D45523143000A202E002020002048
:100C000020506F72743A20004F7574707574203DD7
:100C10002000496E70757420203D200050574D3AD9
:100C200020202534640050574D3A2020253464009C
:100C300050574D3A20202534640050574D3A20201B
:100C40002534640050574D3A202025346400505715
:100C50004D3A20202534640050574D3A2020253449
:100C6000640050574D3A20202534640050574D3AC7
:100C700020202534640050574D3A2020253464004C
:100C800050574D3A20202534640050574D3A2020CB
:100C90002534640050574D3A2020253464005057C5
:100CA0004D3A20202534640050574D3A20202534F9
:100CB000640050574D3A2020253464002020200045
:100CC000202020416E616C6F6720696E203D2025D9
:100CD0003564003C756E757365642F756E6B6E6F51
:100CE000776E3E002028412532642920200025739C
:100CF00050494E3A202533642000416E616C6F6785
:100D000020696E203D202535640070726F74656324
:100D100074656420002028412532642920200025A4
:100D20007350494E3A2025336420005D0700015975
:100D30000701014C07390041073600360737002903
:100D40000738001C0732010F07330103073401F88D
:100D5000063501ED064F01E5064C01DD064D01D5D6
:100D6000064E01C6062E01B8062601AD061101A2E7
:100D7000061001970654018C062B017E061A01739A
:100D8000064101680642015C06220151062A014320
:100D900006190138063F012D0640012106210119DF
:100DA0000608011006060107060201FA050901ED11
:100DB000050701E0050601D1050301C8055001BC86
:100DC000054801B0054901A4054A0198054B018871
:100DD0000547017C05460174050D016B0532016272
:100DE0000533015805040150053401420551013D08
:100DF00005350132051701270517011C05180111DA
:100E000005050101052001E8041F01D2042D01CBD5
:100E1000043501C1043001B4041D01AA040C01A071
:100E2000042801960429018B0425018104310174F1
:100E3000041C016A040B0160044501560427014BA0
:100E400004240141042F0134041B012A041E012043
:100E5000044401160443010B042301446F6E652E04
:100E60000A0061626C65640A0064697300656E0063
:100E7000656E6473746F70206D6F6E69746F72202D
:100E80000074726967676572206E6F7420646574A0
:100E900065637465640A006E6F69736520646574C8
:100EA0006563746564202D20706C656173652072C4
:100EB000652D72756E20746573740A00424C546F10
:100EC00075636820636F6D70617469626C65207012
:100ED000726F6265206465746563746564202D209B
:100EE00070756C736520776964746820282B2F2DCA
:100EF00020346D53293A20005A20536572766F20B2
:100F000050726F62652064657465637465640A007D
:100F1000706C6561736520747269676765722070B3
:100F2000726F62650A004552524F523A20424C5449
:100F30004F55434820656E61626C6564202D2073B7
:100F400065742074686973206465766963652075CB
:100F5000702061732061205A20536572766F205093
:100F6000726F6265207769746820696E7665727445
:100F7000696E6720617320747275652E0A002E20D9
:100F80002053544F5745442028747269676765722F
:100F90006564292073746174653A20484947482084
:100FA000286C6F6769632031290A002E2020444590
:100FB000504C4F5945442073746174653A204C4F2E
:100FC0005720286C6F6769632030290A002E202083
:100FD00053544F574544202874726967676572659A
:100FE00064292073746174653A204C4F5720286C33
:100FF0006F6769632030290A002E20204445504C39
:101000004F5945442073746174653A2048494748F4
:1010100020286C6F6769632031290A00424C546FA5
:1010200075636820636C6F6E6520646574656374B6
:1010300065640A005741524E494E47202D20494EC3
:1010400056455254494E472073657474696E672043
:1010500070726F6261626C79206261636B7761723A
:1010600064730A002E206465706C6F7920262073EB
:10107000746F7720342074696D65730A0066616C43
:1010800073650A002E205A5F4D494E5F454E44530A
:10109000544F505F494E56455254494E473A2000EE
:1010A0002E2075736573205A5F4D494E5F454E443F
:1010B00053544F505F494E56455254494E4720288D
:1010C00069676E6F726573205A5F4D494E5F50526B
:1010D0004F42455F454E4453544F505F494E56452D
:1010E0005254494E47290A002E2070726F626520C3
:1010F00075736573205A5F4D494E2070696E3A20B2
:10110000002E202073746F7720616E676C653A2023
:101110002020002E20206465706C6F7920616E673E
:101120006C653A20002E20207573696E6720696E09
:101130006465783A202000536572766F2070726F74
:10114000626520746573740A005761746368696E20
:10115000672070696E730A005374616E6461726413
:1011600020446576696174696F6E3A20002052618F
:101170006E67653A2000204D61783A2000204D6965
:101180006E3A20004D65616E3A200046696E6973C3
:10119000686564210A002072616E67653A2000204C
:1011A0006D61783A2000206D696E3A2000207369E5
:1011B000676D613A2000206D65616E3A20003A202B
:1011C0007A3A2000206F662000205A002059002023
:1011D0005800476F696E6720746F3A00436C6F6305
:1011E0006B776973650A00436F756E7465722D00C5
:1011F00020446972656374696F6E3A200020202074
:10120000616E676C653A20005374617274696E6731
:10121000207261646975733A2000506F7369746954
:101220006F6E696E67207468652070726F62652EDC
:101230002E2E0A003F4E756D626572206F66206C1F
:1012400065677320696E206D6F76656D656E7420BD
:101250006E6F7420706C61757369626C65202830E4
:101260002D3135292E0A003F2028582C5929206F6E
:101270007574206F6620626F756E64732E0A003F6E
:1012800053616D706C652073697A65206E6F742090
:10129000706C61757369626C652028342D35302956
:1012A0002E0A004D3438205A2D50726F626520523C
:1012B00065706561746162696C69747920546573E5
:1012C000740A003F2856296572626F7365206C6549
:1012D00076656C20697320696D706C6175736962E5
:1012E0006C652028302D34292E0A0046696C616D0A
:1012F000656E7420757365643A200053746174736D
:101300003A20002C204C6F6E67657374206A6F6200
:101310003A2000546F74616C2074696D653A200046
:1013200053746174733A20002C204661696C6564C3
:101330003A20002C2046696E69736865643A200083
:101340005072696E74733A200053746174733A205A
:101350000020573A004520436F6F6C696E672E2E50
:101360002E00452048656174696E672E2E2E002080
:10137000573A0042656420636F6F6C696E672E2E6A
:101380002E004265642068656174696E672E2E2E9A
:1013900000205A3A0020593A0020436F756E74209D
:1013A000583A0020453A00205A3A0020593A00584D
:1013B0003A003A004361703A005741524E494E4755
:1013C00021204C6F77205A204A65726B206D61791D
:1013D000206C65616420746F20756E77616E746532
:1013E00064207061757365732E0A00205A002059BD
:1013F00000580020204D61783A2000205A002059E2
:1014000000580020204D696E3A20004F6E20004F9A
:10141000666600536F667420656E6473746F7073D4
:101420003A20003A200020536572766F2000206F2A
:101430007574206F662072616E67650A005365726D
:10144000766F2000496E76616C69642065787472ED
:10145000756465720A0020643A0020693A002070C1
:101460003A004B64200023646566696E652044453C
:101470004641554C545F004B692000236465666902
:101480006E652044454641554C545F004B7020002A
:1014900023646566696E652044454641554C545F3A
:1014A00000504944204175746F74756E65206669FB
:1014B0006E697368656421205075742074686520B6
:1014C0006C617374204B702C204B6920616E64201A
:1014D0004B6420636F6E7374616E74732066726FF9
:1014E0006D2062656C6F7720696E746F20436F6E3C
:1014F00066696775726174696F6E2E680A0050497B
:1015000044204175746F74756E65206661696C6501
:1015100064212074696D656F75740A00453120542B
:101520004845524D414C2052554E41574159004279
:10153000454420544845524D414C2052554E415748
:10154000415900546865726D616C2052756E617707
:1015500061790045312048656174696E6720666174
:10156000696C6564004265642068656174696E67D2
:10157000206661696C65640048656174696E672006
:101580006661696C656400504944204175746F74EC
:10159000756E65206661696C6564212054656D70A7
:1015A0006572617475726520746F6F206869676811
:1015B0000A00204B643A2000204B693A2000204B5F
:1015C000703A20000A20436C6173736963205049AC
:1015D00044200A002054753A2000204B753A200020
:1015E000206D61783A2000206D696E3A20002064F9
:1015F0003A200020626961733A200050494420413A
:1016000075746F74756E652073746172740A00501E
:101610004944204175746F74756E65206661696C0C
:101620006564212042616420657874727564657216
:10163000206E756D6265720A004F66660A0046612B
:101640006465204865696768742000426564204CC1
:101650006576656C696E6720004661696C6564201B
:10166000746F20656E61626C6520426564204C6514
:1016700076656C696E670A004D65736820706F69E6
:101680006E742063616E6E6F742062652072657384
:101690006F6C7665640A004D34323120696E636F79
:1016A000727265637420706172616D657465722019
:1016B00075736167650A004F6666736574732061B0
:1016C00070706C696564004572723A20546F6F20C7
:1016D0006661722100546F6F206661722066726FBE
:1016E0006D207265666572656E636520706F696EE8
:1016F000740A00496E736572742066696C616D6569
:101700006E7420616E6420707265737320627574EC
:10171000746F6E0A00507265737320627574746F13
:101720006E20746F2068656174206E6F7A7A6C65C4
:101730000A00496E736572742066696C616D656E2E
:101740007420616E642070726573732062757474A6
:101750006F6E20286F72204D313038290A004732D1
:101760002F47332062616420706172616D6574651A
:1017700072730A00536C6565702E2E2E00486F6DD3
:10178000652058592066697273740A00486F6D6548
:1017900020585920666972737400205A3A2000203C
:1017A000593A200042656420583A20004D6573681C
:1017B00020706F696E742063616E6E6F7420626555
:1017C000207265736F6C7665640A00436C69636BA5
:1017D00020746F20726573756D652E2E2E004E6F0E
:1017E000206D6F76652E00456E642066696C6520FD
:1017F0006C6973740A00426567696E2066696C657E
:10180000206C6973740A004D313235005072696E74
:10181000742074696D653A20006F66660082077DEA
:101820000776076F07610744454255473A004B4921
:101830004C4C45442E20004D3131332053006F6B0A
:10184000007669766F2D7072696E74657233204F01
:1018500066662E00544845524D414C5F50524F54DD
:10186000454354494F4E004155544F5245504F52F5
:10187000545F53445F53544154555300454D4552B2
:1018800047454E43595F50415253455200434153DF
:10189000455F4C494748545F4252494748544E457A
:1018A000535300544F47474C455F4C4947485453A6
:1018B00000534F4654574152455F504F57455200D1
:1018C0004255494C445F50455243454E54004C45A7
:1018D00056454C494E475F44415441005A5F50526F
:1018E0004F4245004155544F4C4556454C005052CF
:1018F000494E545F4A4F420050524F47524553534E
:10190000004155544F5245504F52545F54454D502D
:1019100000564F4C554D4554524943004545505291
:101920004F4D0053455249414C5F584F4E5F584F01
:101930004646004649524D574152455F4E414D453E
:101940003A4D61726C696E20312E312E3920284754
:1019500069746875622920534F555243455F434F60
:1019600044455F55524C3A68747470733A2F2F6730
:1019700069746875622E636F6D2F4D61726C696E4C
:101980004669726D776172652F4D61726C696E2068
:1019900050524F544F434F4C5F56455253494F4E50
:1019A0003A312E30204D414348494E455F545950FD
:1019B000453A7669766F2D7072696E746572332060
:1019C00045585452554445525F434F554E543A3151
:1019D00020555549443A62663939303335312D63E3
:1019E0003530382D346434302D616338362D393438
:1019F000393364643863656337300A002F2F200061
:101A00004D31343520533C696E6465783E206F75E6
:101A100074206F662072616E67652028302D312931
:101A20000A00205400205200416363656C657261B6
:101A300074696F6E3A20500020466C6F773A200030
:101A400043290A0061626C656420286D696E207408
:101A5000656D702000436F6C6420657874727564E6
:101A6000657320617265200020643A0020693A00A5
:101A700020703A004E6F2063617365206C6967685F
:101A8000740A00454550524F4D204F4B0A003F5AB3
:101A9000206F7574206F662072616E676520282D37
:101AA000323020746F203230290A003A2000507200
:101AB0006F6265205A204F6666736574003F4B2045
:101AC00076616C7565206F7574206F662072616E2B
:101AD00067652028302D3130292E0A004164766157
:101AE0006E6365204B3D00416374697665204578DF
:101AF0007472756465723A2000496E76616C69642F
:101B00002065787472756465720A00526573656E3B
:101B1000643A20006F6B0020746F6F206C6F6E67EB
:101B200020657874727573696F6E20707265766562
:101B30006E7465640A0020636F6C6420657874724B
:101B40007573696F6E2070726576656E7465640A70
:101B500000627573793A2070617573656420666FF1
:101B60007220696E7075740A00627573793A20701C
:101B7000617573656420666F7220757365720A0003
:101B8000627573793A2070726F63657373696E67FB
:101B90000A004B494C4C45442E20004B494C4C20EC
:101BA000636175736564206279204B494C4C2062F7
:101BB0007574746F6E2F70696E0A004B494C4C45FA
:101BC000442E20004B494C4C2063617573656420A2
:101BD000627920746F6F206D75636820696E616330
:101BE000746976652074696D65202D206375727245
:101BF000656E7420636F6D6D616E643A2000506C89
:101C000065617365207265736574005052494E5466
:101C100045522048414C544544005072696E7465E9
:101C2000722068616C7465642E206B696C6C282965
:101C30002063616C6C6564210A00000000000000F4
:101C4000A0C0000000000000484200004842000020
:101C50008040000000005761726E696E673A20484C
:101C60006F6D696E672042756D7020446976697387
:101C70006F72203C20310A000202040000A04000E4
:101C800000A0400000004000008C4300009643008C
:101C900000C843FFFFFF4D3630303A20546F6F20AD
:101CA000636F6C6400486F74656E6420746F6F209E
:101CB000636F6C640A007C3C3E5E2B3D3F2F5B5D96
:101CC0003B2C2A225C004572726F72207772697415
:101CD000696E6720746F20454550524F4D210A00B0
:101CE000454550524F4D206461746173697A652097
:101CF0006572726F722E0A00290A0020627974657B
:101D0000733B20637263200053657474696E67735C
:101D10002053746F726564202800290A00206279BC
:101D20007465733B2063726320002073746F726567
:101D3000642073657474696E677320726574726968
:101D400065766564202800202863616C63756C618A
:101D500074656429210A0020213D20004545505228
:101D60004F4D20435243206D69736D617463682049
:101D70002D202873746F7265642920002053697ABE
:101D8000653A2000496E6465783A2000204D617202
:101D90006C696E3D563535290A0028454550524F2D
:101DA0004D3D00454550524F4D2076657273696F29
:101DB0006E206D69736D61746368200048617264A0
:101DC000636F6465642044656661756C7420536557
:101DD0007474696E6773204C6F616465640A00DC1B
:101DE000050000DC05000032000000DC05000000FA
:101DF000009643000096430000A0400000C8410048
:101E000000A0420000A0420000C8430000BA423ACD
:101E10000A0020286D6D290020204D363033200027
:101E20002055004C0046696C616D656E74206C6FC6
:101E300061642F756E6C6F6164206C656E67746889
:101E4000733A0A0020204D393030204B004C696E27
:101E500065617220416476616E63653A0A002020F4
:101E60004D383531205A005A2D50726F6265204F1F
:101E700066667365740020440020490020204D33BD
:101E8000303420500020440020490020204D3330C1
:101E9000312050005049442073657474696E677333
:101EA0003A0A0020460020420020480020204D3100
:101EB00034352053004D6174657269616C2068652A
:101EC0006174757020706172616D65746572733ACA
:101ED0000A00205A00204A0020204732392057208B
:101EE0004900205A0020204D3432302053004175E3
:101EF000746F20426564204C6576656C696E673A44
:101F00000A00205A0020590020204D323036205837
:101F100000486F6D65206F66667365743A0A00202D
:101F20004500205A0020590020580020540020531A
:101F30000020204D32303520420020453C6D617834
:101F40005F655F6A65726B3E0020583C6D61785F2B
:101F5000785F6A65726B3E20593C6D61785F795F8E
:101F60006A65726B3E205A3C6D61785F7A5F6A6584
:101F7000726B3E00416476616E6365643A20423C58
:101F80006D696E5F7365676D656E745F74696D65AD
:101F90005F75733E20533C6D696E5F666565647264
:101FA0006174653E20543C6D696E5F747261766544
:101FB0006C5F66656564726174653E002054002044
:101FC000520020204D323034205000416363656C54
:101FD00065726174696F6E2028756E6974732F73F2
:101FE00032293A20503C7072696E745F6163636598
:101FF0006C3E20523C726574726163745F6163630E
:10200000656C3E20543C74726176656C5F616363FD
:10201000656C3E0A00204500205A0020590020200F
:102020004D3230312058004D6178696D756D204119
:102030006363656C65726174696F6E2028756E6983
:1020400074732F7332293A0A00204500205A002069
:10205000590020204D3230332058004D6178696D91
:10206000756D206665656472617465732028756E90
:102070006974732F73293A0A00204500205A002002
:10208000590020204D393220580053746570732058
:1020900070657220756E69743A0A0020204D3230E6
:1020A000302044300A0020204D32303020440020BF
:1020B00044697361626C65640A0046696C616D65B0
:1020C0006E742073657474696E67733A0020204DD6
:1020D0003134392043203B20556E69747320696E7A
:1020E0002043656C736975730A00202047323120E4
:1020F0002020203B007A5F6D696E3A2000795F6D89
:10210000696E3A2000785F6D696E3A200052657002
:102110006F7274696E6720656E6473746F7020737C
:1021200074617475730A0020746F6F206C6F6E6732
:1021300020657874727573696F6E2070726576654C
:102140006E7465640A0020636F6C64206578747235
:102150007573696F6E2070726576656E7465640A5A
:102160000040012C0173012201AB011801F3010EA3
:102170000148020401AC02FA002A03F000C303E69E
:10218000008004DC006D05D2006C06C800C707BEE5
:10219000007009B4006D0BAA00CB0DA000CF138C0A
:1021A00000F21B7800E9246400142E50009C353C9A
:1021B00000B83A2800A03D14000B3F000024F4D4DE
:1021C0003050C38E20C2A24017828B7011127A91B8
:1021D0000D816CD90AA861E108C7586607615143AF
:1021E000061E4B5D05C145A7041A411104093D981F
:1021F00003713931034036DB0265339102D4305428
:1022000002802E1D02632CEE01752AC501B028A0A4
:1022100001102781018F2564012B244B01E022341A
:1022200001AC211F018D200D01801FFC00841EEDDB
:1022300000971DDF00B81CD200E61BC600201BBCA7
:1022400000641AB200B219A8000A19A0006A18990D
:1022500000D117910040178B00B516840031167E0F
:1022600000B31579003A157300C7146F0058146A4B
:1022700000EE1366008813630025135E00C7125B2F
:10228000006C12570015125400C111510070114F0B
:102290000021114B00D61049008D10470046104414
:1022A0000002104200C00F4000800F3E00420F3C71
:1022B00000060F3B00CB0E3800930E37005C0E3546
:1022C00000270E3400F30D3200C10D3100900D30A7
:1022D00000600D2E00320D2D00050D2C00D90C2BA9
:1022E00000AE0C2900850C29005C0C2700350C275A
:1022F000000E0C2600E80B2400C40B2400A00B23C6
:10230000007D0B23005A0B2100390B2100180B20F4
:1023100000F80A1F00D90A1E00BB0A1E009D0A1DF4
:1023200000800A1D00630A1C00470A1B002C0A1BC0
:1023300000110A1A00F7091A00DD091900C4091969
:1023400000AB091900920917007B091800630917EF
:10235000004C09160036091600200916000A091556
:1023600000F5081500E0081400CC081400B80814A3
:1023700000A4081400900813007D0812006B0813D5
:1023800000580812004608120034081100230811F2
:10239000001208110001081100F0071000E00710FA
:1023A00000D0071000C0071000B0070F00A10710F1
:1023B0000091070E0083070F0074070F0065070EDA
:1023C0000057070E0049070E003B070D002E070EB1
:1023D0000020070D0013070D0006070D00F9060C7D
:1023E00000ED060D00E0060C00D4060C00C8060C3B
:1023F00000BC060C00B0060C00A4060B0099060CED
:10240000008D060B0082060B0077060B006C060B96
:102410000061060A0057060B004C060A0042060A35
:102420000038060A002E060A0024060A001A060AC8
:10243000001006090007060A00FD050900F4050959
:1024400000EB050900E2050900D9050900D00509DE
:1024500000C7050900BE050900B5050800AD05085F
:1024600000A50509009C050800940508008C0508D6
:1024700000840508007C050800740508006C050749
:1024800000650508005D050700560508004E0507B4
:10249000004705070040050800380507003105071B
:1024A000002A050700230507001C0506001605077E
:1024B000000F0507000805060002050700FB0406DB
:1024C00000F5040700EE040600E8040600E2040735
:1024D00000DB040600D5040600CF040600C904068C
:1024E00000C3040600BD040600B7040600B10405DD
:1024F00000AC040600A6040600A00405009B040628
:102500000095040500900406008A04050085040572
:1025100000800406007A04050075040500700405B7
:10252000006B04050066040500610405005C0405F9
:102530000057040500520405004D04050048040539
:1025400000430405003E0404003A04050035040578
:1025500000300404002C04050027040400230405B3
:10256000001E0404001A04040016040500110404EB
:10257000000D040400090405000404040000040420
:1025800000FC030400F8030400F4030400F0030457
:1025900000EC030400E8030400E4030400E0030487
:1025A00000DC030400D8030400D4030400D00304B7
:1025B00000CC030400C8030300C503030024F40493
:1025C000D9201BC40C5C0E9804C4095F0265077116
:1025D00001F405F900FB04B30048048700C1036956
:1025E000005803550003034500BE023A008402313F
:1025F0000053022A002902250004022000E4011CE5
:1026000000C8011900AF01170098011400840113DC
:1026100000710110006101100051010E0043010D15
:102620000036010B002B010B0020010B00150109E6
:10263000000C01090003010800FB000800F300087A
:1026400000EB000700E4000600DE000600D80006EC
:1026500000D2000600CC000500C7000500C200053E
:1026600000BD000400B9000400B5000400B100047E
:1026700000AD000400A9000400A5000300A20003AF
:10268000009F0004009B00030098000300950002D7
:102690000093000300900003008D0002008B0003F4
:1026A000008800020086000200840003008100020E
:1026B000007F0002007D0002007B00020079000222
:1026C0000077000100760002007400020072000131
:1026D00000710002006F0002006D0001006C00023A
:1026E000006A000100690002006700010066000145
:1026F0000065000100640002006200010061000149
:1027000000600001005F0002005D0001005C00014C
:10271000005B0001005A000100590001005800014F
:10272000005700010056000100550001005400014F
:10273000005300000053000100520001005100014D
:1027400000500001004F0001004E0000004E00014B
:10275000004D0001004C0001004B0000004B000147
:10276000004A000100490001004800000048000143
:10277000004700010046000000460001004500003F
:102780000045000100440001004300000043000137
:102790000042000000420001004100000041000131
:1027A00000400001003F0000003F0001003E00002B
:1027B000003E0001003D0000003D0001003C000023
:1027C000003C0000003C0001003B0000003B000119
:1027D000003A0000003A0001003900000039000111
:1027E0000038000000380000003800010037000009
:1027F00000370001003600000036000000360001FE
:1028000000350000003500000035000100340000F4
:1028100000340000003400010033000000330000E9
:1028200000330001003200000032000000320001DD
:1028300000310000003100000031000100300000D4
:102840000030000000300001002F0000002F0000C9
:10285000002F0000002F0001002E0000002E0000BD
:10286000002E0001002D0000002D0000002D0000B2
:10287000002D0001002C0000002C0000002C0000A6
:10288000002C0001002B0000002B0000002B00009A
:10289000002B0001002A0000002A0000002A00008E
:1028A000002A000100290000002900000029000082
:1028B0000029000000290001002800000028000075
:1028C0000028000000280000002800010027000068
:1028D000002700000027000000270000002700015B
:1028E0000026000000260000002600000026000050
:1028F0000026000100250000002500000025000042
:102900000025000000250000002500010024000033
:102910000024000000240000002400000024000126
:10292000002300000023000000230000002300001B
:10293000002300000023000000230001002200000B
:1029400000220000002200000022000000220000FF
:1029500000220001002100000021000000210000F1
:1029600000210000002100000021000000210001E2
:1029700000200000002000000020000000200000D7
:1029800000200000002000000020000000200001C6
:10299000001F0000001F0000001F0000001F0000BB
:1029A000001F0000001F0000001F0001001E0000AB
:1029B000001E0000001E0000001E000000C23100CA
:1029C000001C260000F4190000D80F0000EB0800DE
:1029D00000C004000075020000400100004D696362
:1029E000726F737465707320756E617661696C6166
:1029F000626C650A0045313A200045303A20005AA1
:102A00003A2000593A2000583A20004D53312C4DBD
:102A100053322050696E730A006265640A002C20EC
:102A200073797374656D2073746F707065642120A1
:102A30004865617465725F49443A200042656420CC
:102A400068656174696E67206661696C65640048D9
:102A5000656174696E67206661696C656400453103
:102A60002048656174696E67206661696C65640001
:102A700048656174696E67206661696C65640070A1
:102A8000012C0190012701B0012201C0011D01F0BC
:102A90000118011002130130020E016002090190B9
:102AA000020401C002FF000003FA004003F50080A9
:102AB00003F000D003EB002004E6007004E100E026
:102AC00004DC004005D700C005D2004006CD00D090
:102AD00006C8008007C3003008BE00F008B900C077
:102AE00009B400B00AAF00B00BAA00D00CA50000DA
:102AF0000EA000500F9B00C01096005012910000D5
:102B0000148C00C0158700B0178200B0197D00D06A
:102B10001B7800001E730040206E0090226900F0B8
:102B200024640040275F0090295A00E02B550010D4
:102B30002E500020304B0010324600E03341009010
:102B4000353C001037370070383200A0392D00B006
:102B50003A2800A03B2300603C1E00103D19009065
:102B60003D1400103E0F00703E0A00C03E050000FC
:102B70003F0000403FFBFF803FF6FFC03FF1FF45B5
:102B80003120544845524D414C2052554E415741F9
:102B9000590042454420544845524D414C2052551D
:102BA0004E4157415900546865726D616C205275F1
:102BB0006E61776179004531204572723A204D414E
:102BC0005854454D50004572723A204D4158544575
:102BD0004D5020424544004D415854454D502074BD
:102BE0007269676765726564004531204572723AA3
:102BF000204D494E54454D50004572723A204D4982
:102C00004E54454D5020424544004D494E54454D8B
:102C10005020747269676765726564004D383420AE
:102C2000582059205A204500202F002042403A00C9
:102C300020403A0025753A2530327500253032752E
:102C40003A253032750025756420253032753A25D5
:102C500030327500202020202020005A005900200A
:102C60002020200058000920000000000000000083
:102C700000000000003FFFF0000000000000000026
:102C8000000000003800700000000000000000009C
:102C900000000030FC3000000000000000000000D8
:102CA000000020FC100000000000000000000000F8
:102CB000002078100000000000000000000000006C
:102CC0002030100000000000000000000000002C78
:102CD00000D03FC0000000000000002082002E3124
:102CE000D07FE0000000000000001041002F7BD0EA
:102CF0007FE0000000000000001041002F7BD07F2B
:102D0000E0000000000000002082002E31D03FC013
:102D1000000000000000004104002C00D03FC00073
:102D20000000000000008208002030107FE000005A
:102D300000000000008208002078107FE000000002
:102D40000000000041040020FC107FE000000000B3
:102D500000000020820030FC301F800000000000D6
:102D600000000000003800700F00000000000000AC
:102D700000FFFFC03FFFF006000000000000000061
:102D8000FFFFC00000000000000000000000000085
:102D900000003FFFF0000000000000000000000005
:102DA000003800700000000000000000000000007B
:102DB0003186300000000000000000000000002309
:102DC00087100000000000000000000000002787BE
:102DD000900000000000000000000000002F87D0DD
:102DE0000000000000000000000000002F03D03FA2
:102DF000C0000000000000002082002030107FE0B2
:102E0000000000000000001041002078107FE0006A
:102E10000000000000001041002078107FE000005A
:102E200000000000002082002030103FC0000000A1
:102E3000000000004104002F03D03FC0000000004C
:102E40000000008208002F87D07FE0000000000013
:102E500000008208002787907FE00000000000004B
:102E6000004104002387107FE00000000000000004
:102E70002082003186301F8000000000000000002A
:102E800000003800700F0000000000000000FFFF8D
:102E9000C03FFFF0060000000000000000FFFFC080
:102EA0000000007669766F2D7072696E74657233FA
:102EB0002052656164792E005072696E74696E6784
:102EC0002E2E2E005072696E7420706175736564C9
:102ED0000053746F7720424C546F756368004D3215
:102EE000383020503020533930004465706C6F7991
:102EF00020424C546F756368004D3238302050309A
:102F00002053313000424C546F7563682053656C18
:102F1000662D54657374004D323830205030205384
:102F200031323000526573657420424C546F7563C2
:102F300068004D3238302050302053313630004D4B
:102F400061696E004D313235004D32340050726986
:102F50006E742061626F72746564004E6F2053441A
:102F60002063617264005072696E742066726F6DC6
:102F70002053440053746F70207072696E74005255
:102F80006573756D65207072696E740041626F754E
:102F900074205072696E746572005061757365209B
:102FA0007072696E7400436F6E74726F6C00507251
:102FB00065706172650054756E6500496E666F20BC
:102FC00073637265656E0042616279737465702027
:102FD0005A004368616E67652066696C616D656E55
:102FE00074004261627973746570205A00466C6F98
:102FF0007700466C6F770046616E2073706565647C
:1030000020330046616E207370656564203300468E
:10301000616E20737065656420320046616E2073B6
:103020007065656420320046616E2073706565646A
:1030300020310046616E2073706565642031004266
:10304000656400426564004E6F7A7A6C65004E6F6D
:103050007A7A6C65004661646520486569676874C2
:10306000004661646520486569676874005370654F
:103070006564005370656564004D61696E0050724F
:10308000656865617420504C4120456E6400507243
:10309000656865617420504C41204265640050723F
:1030A000656865617420504C4100507265706172B2
:1030B0006500507265686561742041425320456E19
:1030C0006400507265686561742041425320426516
:1030D000640050726568656174204142530050720B
:1030E0006570617265004D343238004D32383020E1
:1030F0005030205331363000424C546F7563682095
:1031000053656C662D54657374004D323830205011
:10311000302053313230005072656865617420414F
:103120004253005072656865617420504C41004301
:103130006F6F6C646F776E00526573657420424CDC
:10314000546F756368004368616E67652066696CDB
:10315000616D656E740044697361626C652073749F
:10316000657070657273004D383400536574206863
:103170006F6D65206F666673657473004661646584
:103180002048656967687400466164652048656920
:10319000676874004F6666004F6E200042656420C9
:1031A0004C6576656C696E67004C6576656C20626F
:1031B0006564004732380A47323900486F6D652030
:1031C0005A00473238205A00486F6D652059004731
:1031D0003238205900486F6D65205800473238203A
:1031E00058004175746F20686F6D65004732380074
:1031F0004D6F76652061786973004D61696E004D91
:103200006F76652058004D6F76652059004D6F76BA
:1032100065205A004578747275646572004D6F764A
:103220006520302E316D6D004D6F766520316D6DEE
:10323000004D6F76652031306D6D004D6F766520E5
:1032400061786973004578747275646572004D6FBA
:103250007665205A004D6F76652059004D6F766572
:103260002058004578747275646572004D6F7665FC
:10327000205A004D6F76652059004D6F76652058B5
:10328000005072657061726500496E697469616CA5
:10329000697A6520454550524F4D00436F6E7472F8
:1032A0006F6C00526573746F7265206661696C7330
:1032B000616665004C6F61642073657474696E6744
:1032C0007300496E697469616C697A65204545507F
:1032D000524F4D0053746F72652073657474696E3C
:1032E000677300424C546F7563680046696C616D8A
:1032F000656E74004D6F74696F6E0054656D706516
:10330000726174757265004D61696E005072656816
:103310006561742041425320636F6E660050726590
:103320006865617420504C4120636F6E660050499F
:10333000442D44005049442D44005049442D490037
:103340005049442D49005049442D50005049442DC6
:103350005000200820466163740020082046616305
:1033600074002008204D6178002008204D6178000D
:103370002008204D696E002008204D696E004F66C0
:1033800066004F6E20004175746F74656D70004665
:10339000616E20737065656420330046616E207332
:1033A0007065656420330046616E207370656564E6
:1033B00020320046616E20737065656420320046DD
:1033C000616E20737065656420310046616E207304
:1033D0007065656420310042656400426564004E9A
:1033E0006F7A7A6C65004E6F7A7A6C6500436F6E07
:1033F00074726F6C0053746F7265207365747469B6
:103400006E67730042656400426564004E6F7A7AAD
:103410006C65004E6F7A7A6C650046616E20737041
:103420006565640046616E2073706565640054656F
:103430006D706572617475726500565472617620A4
:103440006D696E005654726176206D696E00566D1E
:10345000696E00566D696E00566D617820450056A4
:103460006D6178204500566D6178205A00566D6177
:1034700078205A00566D6178205900566D61782089
:103480005900566D6178205800566D6178205800BB
:103490004D6F74696F6E00416D6178204500416D1C
:1034A0006178204500416D6178205A00416D617856
:1034B000205A00416D6178205900416D6178205992
:1034C00000416D6178205800416D617820580041BD
:1034D0002D74726176656C00412D74726176656C35
:1034E00000412D7265747261637400412D726574C0
:1034F0007261637400416363656C00416363656C72
:10350000004D6F74696F6E0056652D6A65726B00B1
:1035100056652D6A65726B00567A2D6A65726B006E
:10352000567A2D6A65726B0056792D6A65726B004A
:1035300056792D6A65726B0056782D6A65726B003C
:1035400056782D6A65726B004D6F74696F6E004519
:1035500073746570732F6D6D004573746570732F90
:103560006D6D005A73746570732F6D6D005A7374AE
:103570006570732F6D6D005973746570732F6D6D69
:10358000005973746570732F6D6D00587374657096
:10359000732F6D6D005873746570732F6D6D004DD2
:1035A0006F74696F6E0053746570732F6D6D004A90
:1035B00065726B00416363656C65726174696F6EFF
:1035C0000056656C6F636974790050726F62652094
:1035D0005A204F66667365740050726F6265205A98
:1035E000204F666673657400436F6E74726F6C0073
:1035F0004C6F6164206D6D004C6F6164206D6D00D7
:10360000556E6C6F6164206D6D00556E6C6F6164FA
:10361000206D6D0046696C2E204469612E0046695C
:103620006C2E204469612E004F6666004F6E2000AC
:103630004520696E206D6D3300416476616E63656F
:10364000204B00416476616E6365204B00436F6ED2
:1036500074726F6C0043616E6E6F7420656E74657A
:1036600072207375626469723A2000022E2E004D3A
:1036700061696E0000457874727564656420746FCA
:1036800074616C3A2000256C642E25696D00004C35
:103690006F6E67657374206A6F622074696D653A36
:1036A000200000546F74616C207072696E74207415
:1036B000696D653A2000436F6D706C657465643A9E
:1036C00020005072696E7420436F756E743A20004A
:1036D0004D61782054656D703A20313035004D6968
:1036E0006E2054656D703A203500544265643A4549
:1036F00050434F53203130304B004D61782054659A
:103700006D703A20323735004D696E2054656D700A
:103710003A20350054303A20486973656E73005082
:1037200053553A2047656E657269630050726F7435
:103730006F636F6C3A20312E3000426175643A201D
:103740003235303030300052616D626F0042696C4A
:10375000696E656172204C6576656C696E670045BF
:1037600078747275646572733A203100687474708D
:103770003A2F2F6572796F6E652E636F6D007669D3
:10378000766F2D7072696E74657233003230313924
:103790002D31312D313100312E312E39004D6172F4
:1037A0006C696E005072696E746572205374617436
:1037B0007300546865726D6973746F727300426F41
:1037C00061726420496E666F005072696E74657232
:1037D00020496E666F004D61696E004D37303220B2
:1037E000542564004D36303020423020542564008A
:1037F0004D373032203B2564004D37303120542581
:103800006400556E6C6F61642066696C616D656EF5
:103810007400556E6C6F61642066696C616D656ED5
:1038200074004D373032004D373031004C6F6164D9
:103830002066696C616D656E74004D3630302042D3
:1038400030004368616E67652066696C616D656E06
:10385000740050726570617265005052494E542078
:1038600050415553454400554E4C4F414420464924
:103870004C414D454E54004C4F41442046494C412B
:103880004D454E54005075726765206D6F7265002E
:10389000436F6E74696E756500524553554D4520F2
:1038A0004F5054494F4E533A0020204E6F7A7A6C55
:1038B000653A20006368616E6765006F6620746812
:1038C000652066696C616D656E740057616974206E
:1038D000666F722073746172740020204E6F7A7A62
:1038E0006C653A2000200066696C616D656E74201D
:1038F000756E6C6F6164005761697420666F720049
:1039000020204E6F7A7A6C653A20002000506C655A
:1039100061736520776169742E2E2E00486561748D
:10392000696E67206E6F7A7A6C650020204E6F7A20
:103930007A6C653A2000200068656174206E6F7AA9
:103940007A6C652E00507265737320627574746FA3
:103950006E20746F0020204E6F7A7A6C653A2000DA
:10396000746F20636F6E74696E75652E2E2E006104
:103970006E6420707265737320627574746F6E006C
:10398000496E736572742066696C616D656E740052
:1039900020204E6F7A7A6C653A2000200066696CB0
:1039A000616D656E74206C6F61640057616974208D
:1039B000666F720020204E6F7A7A6C653A20002084
:1039C0000066696C616D656E742070757267650064
:1039D0005761697420666F7200746F207265737529
:1039E0006D65005761697420666F72207072696E30
:1039F0007400436172642072656D6F766564004384
:103A000061726420696E73657274656400000022DF
:103A100000250028002B002E003100340002010098
:103A200000050108010B01000020002300260029E9
:103A3000002C002F003200000100000301060109E4
:103A40000100000A0B02090C0D0E08070304010017
:103A50000000000000000000000000000000000066
:103A60000000000000000000000000000012111023
:103A70000000000000000000000000000000000046
:103A80000000000000000000002100240027002AA0
:103A9000002D003000330001010000040107010A7D
:103AA0000101021020200808102040102040800250
:103AB0000102010804020101020408102040808074
:103AC00040201008040201800402018040201008F8
:103AD00004020108040201010204081020408001D0
:103AE00002040810204080050505050705080808A0
:103AF00008020202020A0A0808040404040101017F
:103B00000101010101030303030303030304070786
:103B1000070C0C0C0C0C0C0C0C0202020206060624
:103B200006060606060B0B0B0B0B0B0B0B0000001F
:103B3000000000000000000000000000000000E0A5
:103B4000000000000000000000000000000003F082
:103B5000000000000000000000000000000007FC62
:103B6000000000000000000000000000000007FF4F
:103B70000000000000000000000000000000C3FF83
:103B8000C000000000000000000000000001E1FF94
:103B9000E000000000000000000000000003F07FD3
:103BA000F800000000000000000000000007F81FFF
:103BB000FE0000000000000000000000000FF807F9
:103BC000FF0000000000000000000000001FF003E4
:103BD000FE0000000000000000000000003FE000C8
:103BE000FC0000000000000000000000007FC0009A
:103BF000380000000000000000000000007F80008E
:103C0000108000000000000000000000007F0000A5
:103C1000038000000000000000000000007E002083
:103C20000783FF87FF100081C0600C7FF87C007065
:103C30000F87FFCFFF980187F0700CFFFC7C01FE1F
:103C40000F80000C019C038E38780C00007C07FC70
:103C50000F80000C018E071C1C7C0C00007C01F006
:103C60000F80000C01870E180C6E0C00007C00E029
:103C70000F83FF8FFF83FC3006660C7FF87C00000B
:103C80000F87FFCFFF01F83006600CFFFC7C00803F
:103C90000F80000C030060300660CC00007C01F057
:103CA0000F80000C018060180C60EC00007C03FCAD
:103CB0000F80000C0180601C1C607C00007C0FF8F1
:103CC0000F80000C0180600E38603C00007C03E037
:103CD0000F83FF8C01806007F0601C7FF87E01C0BD
:103CE0000F87FFCC01806001C0600CFFFC7F0000EB
:103CF0001F8000000000000000000000007FC000E6
:103D00003F8000000000000000000000007FF00085
:103D1000FF8000000000000000000000003FFC01E8
:103D2000FF8000000000000000000000000FFF07FF
:103D3000FF00000000000000000000000003FF9FE3
:103D4000FC00000000000000000000000000FF9FD9
:103D5000F8000000000000000000000000003F9F8D
:103D6000E0000000000000000000000000001F9FB5
:103D70008000000000000000000000000000079F1D
:103D80000000000000000000000000000000019C96
:103D90000000000000000000000000000000000023
:103DA0000000000000000000000000000000000013
:103DB0000000000000000000000000000020205073
:103DC0006C616E6E65724275666665724279746585
:103DD000733A20002046726565204D656D6F7279DB
:103DE0003A2000436F6D70696C65643A20466562E5
:103DF00020323720323032320A00207C2041757464
:103E0000686F723A20286572796F6E652C2074682D
:103E1000696E6B65723235363020636F6E66696726
:103E2000290A00323031392D31312D313100204C09
:103E300061737420557064617465643A2000312E9A
:103E4000312E390A004D61726C696E0020536F6625
:103E500074776172652052657365740A002057613A
:103E6000746368646F672052657365740A0020424A
:103E7000726F776E206F75742052657365740A00D7
:103E80002045787465726E616C2052657365740AA2
:103E900000506F77657255700A0073746172740A0E
:103EA000006175746F25692E67006572726F7220EC
:103EB00077726974696E6720746F2066696C650A31
:103EC00000456E6473746F70732025632025632032
:103ED000256320256300205A3A0020593A002058D3
:103EE0003A00656E6473746F7073206869743A2069
:103EF00000446F6E6520736176696E672066696C39
:103F0000652E0A004D3239004368616E6765206690
:103F1000696C616D656E7400556E6C6F61642066CE
:103F2000696C616D656E74004C6F61642066696CCC
:103F3000616D656E74005072656865617420414200
:103F400053005072656865617420504C41004368AD
:103F5000616E67652066696C616D656E74004D32D7
:103F600034004D323320257300556E6B6E6F776EC3
:103F700020636F6D6D616E643A202200496E736537
:103F800072742066696C616D656E7420616E642068
:103F9000707265737320627574746F6E20286F720F
:103FA000204D313038290A0050726F62696E6720E7
:103FB0006661696C65640A0050726F62696E6720A1
:103FC0006661696C656400205A3A200020593A20E5
:103FD0000042656420583A200053544F50504544E5
:103FE0002E20005072696E7465722073746F707049
:103FF00065642064756520746F206572726F7273DA
:104000002E2046697820746865206572726F722070
:10401000616E6420757365204D39393920746F20C5
:10402000726573746172742E202854656D706572A8
:1040300061747572652069732072657365742E20D2
:1040400053657420697420616674657220726573AB
:1040500074617274696E67290A0053544F5020636B
:10406000616C6C65642062656361757365206F6661
:1040700020424C546F756368206572726F72202DF8
:1040800020726573746172742077697468204D3989
:1040900039390A00486F6D65202573257325732013
:1040A0006669727374002066697273740A005A003C
:1040B00059005800486F6D652000534420636172B9
:1040C00064206F6B0A006F70656E526F6F742066AC
:1040D00061696C65640A00766F6C756D652E696E3A
:1040E0006974206661696C65640A00534420696ED6
:1040F0006974206661696C0A0057726974696E6739
:1041000020746F2066696C653A20006F70656E20C0
:104110006661696C65642C2046696C653A20006FA5
:1041200070656E206661696C65642C2046696C65FB
:104130003A200046696C652073656C65637465643C
:104140000A002053697A653A200046696C65206F41
:1041500070656E65643A20002066696C653A2000DF
:10416000646F696E67006672657368004E6F7720D2
:1041700000454E4420535542524F5554494E450A2E
:10418000002220706F73002220706172656E743A95
:104190002200535542524F5554494E452043414CFD
:1041A0004C207461726765743A22004B494C4C454F
:1041B000442E2000747279696E6720746F206361E9
:1041C0006C6C207375622D67636F64652066696C23
:1041D0006573207769746820746F6F206D616E79E4
:1041E000206C6576656C732E204D4158206C657689
:1041F000656C2069733A004572726F723A006F7095
:10420000656E206661696C65642C2046696C653A50
:10421000200043616E6E6F74206F70656E20737541
:104220006264697220006563686F3A0000060900E5
:10423000FE0701920321207FFF07FF07FF00000018
:104240000600000107070602008080808080008051
:10425000030202060105A0A0050707060000505052
:10426000F850F850500507070600002078A0702885
:10427000F020050707060000C0C810204098180568
:1042800007070600006090A040A89068020303069C
:104290000104C040800307070601002040808080A1
:1042A00040200307070601008040202020408005B1
:1042B000050506000120A870A820050505060001D7
:1042C0002020F820200203030602FFC040800501E1
:1042D00001060003F8020202060200C0C00505053F
:1042E00006000108102040800507070600007088BE
:1042F000888888887003070706010040C040404056
:1043000040E0050707060000708808708080F80507
:104310000707060000F81020100808F00507070638
:10432000000010305090F81010050707060000F844
:1043300080F008088870050707060000708080F08C
:10434000888870050707060000F808102020202044
:1043500005070706000070888870888870050707C1
:1043600006000070888878080870020505060200BB
:10437000C0C000C0C00206060602FFC0C000C040A8
:10438000800407070600001020408040201005032D
:1043900003060002F800F804070706010080402029
:1043A00010204080050707060000708808102000D4
:1043B0002005070706000070880868A8A870050790
:1043C00007060000708888F88888880507070600B7
:1043D00000F08888F08888F00507070600007088DC
:1043E0008080808870050707060000F0888888882C
:1043F00088F0050707060000F88080F08080F80547
:104400000707060000F88080F08080800507070617
:104410000000708880B8888870050707060000884B
:104420008888F888888801070706020080808080D5
:10443000808080050707060000381010101090607B
:104440000507070600008890A0C0A0908805070710
:10445000060000808080808080F805070706000045
:1044600088D8A8888888880507070600008888C833
:10447000A8988888050707060000708888888888BB
:1044800070050707060000F08888F0808080050727
:104490000706000070888888A8906805070706004E
:1044A00000F08888F0A09088050707060000788053
:1044B00080700808F0050707060000F8202020207B
:1044C00020200507070600008888888888887005EE
:1044D0000707060000888888888850200507070697
:1044E00000008888888888A850050707060000888B
:1044F0008850205088880507070600008888885063
:10450000202020050707060000F80810204080F84A
:10451000030707060100E08080808080E005050534
:104520000600018040201008030707060100E02074
:1045300020202020E0050303060004205088050108
:1045400001060000F802020206020580400505058A
:10455000060000700878887805070706000080804C
:10456000B0C88888F0050505060000708080887056
:10457000050707060000080868988888780505057B
:104580000600007088F880700507070600003048B4
:10459000E0404040400506060600FF708888780825
:1045A000700507070600008080B0C888888801076A
:1045B00007060200800080808080800308080601D2
:1045C000FF200020202020A04004070706000080D4
:1045D0008090A0C0A090030707060100C0404040A3
:1045E0004040E0050505060000D0A8A8A8A80505DC
:1045F00005060000B0C8888888050505060000701B
:10460000888888700506060600FFF08888F080809C
:104610000506060600FF788888780808050505065F
:104620000000B0C88080800505050600007080701D
:1046300008F00407070600004040E0404040300515
:1046400005050600008888889868050505060000AD
:1046500088888850200505050600008888A8A8508D
:10466000050505060000885020508805060606004E
:10467000FF888888780870050505060000F8102076
:1046800040F8030707060100204040804040200119
:10469000070706020080808080808080030707066D
:1046A0000100804040204040800502020600026870
:1046B0009000000006000000060900FE0000000057
:1046C0000001090008FE000005080806000040F08F
:1046D000C88888987810050808060000C0F88888FF
:1046E000888888F80505050600012030F830200587
:1046F00008080600002070F820202020E0050909A5
:104700000600FF2070A8A8B888887020050909064F
:1047100000FFE080C0B0A82830282805090906005D
:10472000FFF8A88888888888A8F8050A0A0600FE85
:10473000205050505088A8A8887003030306000337
:1047400040A04000F000640111241FBECFEFD1E271
:10475000DEBFCDBF00E00CBF13E0A0E0B2E0EEE9A9
:10476000FDE902E00BBF02C007900D92AE3AB1071F
:10477000D9F726E1AEEAB3E001C01D92A139B20734
:10478000E1F713E2C3EAD3E200E006C02197010992
:10479000802FFE010F942F4EC23AD10780E0080708
:1047A000A9F70F94DD3B0D94BD4E0C940000CF9300
:1047B000DF9390916F00292F227091FF05C0909197
:1047C0006F009D7F90936F0094E0899FA00111245A
:1047D000FA01EB57F04F608171818281938122232E
:1047E00029F020916F00226020936F00EA01CF54DE
:1047F000D44F0F946746288139814A815B810F9499
:10480000C646DF91CF910895CF92DF92EF92FF924B
:104810008091410C882309F457C0C0903D0CD09082
:104820003E0CE0903F0CF090400C20E030E0A901FD
:10483000C701B6010F946046882309F445C020E003
:1048400030E040E05FE3C701B6010F94C6469B012C
:10485000AC010F94C6462BED3FE049E450E40F94C1
:10486000C6469B01AC0160E070E080E89FE30F94D6
:10487000E34B6B017C01C092C70BD092C80BE09256
:10488000C90BF092CA0B6091270270912802072E83
:10489000000C880B990B0F9467462AE037ED43E232
:1048A0005CE30F94C646A70196010F94C646609339
:1048B0002302709324028093250290932602FF9096
:1048C000EF90DF90CF900895C12CD12C80E8E82E96
:1048D0008FE3F82ED0CF8F929F92AF92BF92CF925C
:1048E000DF92EF92FF92CF93DF93EC018090A80BC1
:1048F0009090A90BA090AA0BB090AB0B20E030E0F9
:10490000A901C501B4010F946046882309F452C07F
:10491000C880D980EA80FB80A7019601C501B40157
:104920000F94604618160CF04AC02091A1053091F2
:10493000A2054091A3055091A405C701B6010F94AB
:104940006046882321F1C092A105D092A205E09291
:10495000A305F092A40520919D0530919E054091FC
:104960009F055091A005C701B6010F94C6469B0153
:10497000AC0160E070E080E89FE30F94E84A609348
:104980000F027093100280931102909312026091B3
:104990000F02709110028091110290911202DF912A
:1049A000CF91FF90EF90DF90CF90BF90AF909F900E
:1049B0008F90089560E070E080E89FE3F0CF60E0C2
:1049C00070E0CB01ECCFCF92DF92EF92FF92CF93CA
:1049D000DF93EC01C090D00BD090D10BE090D20BC4
:1049E000F090D30BA7019601688179818A819B8120
:1049F0000F94604687FF04C0C882D982EA82FB8296
:104A0000C090D40BD090D50BE090D60BF090D70B84
:104A1000A70196016C817D818E819F810F946046F4
:104A200087FF04C0CC82DD82EE82FF82C0902B0221
:104A3000D0902C02E0902D02F0902E02A70196015A
:104A4000688179818A819B810F94494D181624F4DD
:104A5000C882D982EA82FB82C0902F02D0903002B5
:104A6000E0903102F0903202A70196016C817D81C5
:104A70008E819F810F94494D181624F4CC82DD82DB
:104A8000EE82FF82C090D80BD090D90BE090DA0B69
:104A9000F090DB0BA7019601688579858A859B8557
:104AA0000F94604687FF04C0C886D986EA86FB86D5
:104AB000C0903302D0903402E0903502F09036027C
:104AC000A7019601688579858A859B850F94494D54
:104AD000181624F4C886D986EA86FB86DF91CF9122
:104AE000FF90EF90DF90CF900895179A8091620F1A
:104AF0008E7F8093620F169A8091620F8D7F8093D4
:104B0000620F159A8091620F8B7F8093620F149AC7
:104B10000895CF93DF9380E00E94D723CFEFD4E0B6
:104B2000688379838A839B8381E00E94D7236C8387
:104B30007D838E839F8382E00E94D7236887798755
:104B40008A879B87DF91CF910895082E000C990BDF
:104B5000FC01E951F54CE491EE2391F0F0E0EE0F09
:104B6000FF1FE95DF54CA591B4912C918F55954CA3
:104B7000FC018491282381E090E021F480E00895F5
:104B800080E090E00895082E000C990BFC01E9519B
:104B9000F54CE491F0E0EE0FFF1FE957F54CA591BD
:104BA000B4912C918F55954CFC018491822391E016
:104BB00009F490E0892F0895E2E9FAE094919817BA
:104BC00039F031969AE0EF3BF907C1F780E008959C
:104BD00081E00895CF92DF92EF92FF926091CB0B2C
:104BE0007091CC0B072E000C880B990B0F94674625
:104BF0006B017C012DEB37E346E855EB0F94494DF3
:104C000087FD0BC02DEB37E346E855E3C701B6013E
:104C10000F94604618160CF043C0A701960160E09F
:104C200070E080E89FE30F94E34B6093F704709388
:104C3000F8048093F9049093FA046091CD0B70917D
:104C4000CE0B072E000C880B990B0F9467466B0157
:104C50007C012DEB37E346E855EB0F94494D87FD7A
:104C60000AC02DEB37E346E855E3C701B6010F94C0
:104C700060461816CCF4A701960160E070E080E869
:104C80009FE30F94E34B6093FB047093FC048093C9
:104C9000FD049093FE04FF90EF90DF90CF90089575
:104CA00060E070E0CB01C1CF60E070E0CB01EBCF02
:104CB0008091190490911A04A0911B04B0911C04D6
:104CC0008093630290936402A0936502B09366029E
:104CD000809117049091180490932A0280932902DE
:104CE00008958091630290916402A0916502B09151
:104CF00066028093190490931A04A0931B04B09346
:104D00001C048091290290912A02909318048093A8
:104D1000170484E690E090932A0280932902089574
:104D20000F931F93CF93DF9394E0899FE0011124A9
:104D30008E010D59104FFE01E559F24FDE01AA5BBD
:104D4000BA4F2D913D914D915C916081718182812D
:104D500093810F94E94AF80160837183828393837E
:104D6000FE01E75BF64F85919591A591B491FE0107
:104D7000E053F44F80839183A283B383FE01EB5A07
:104D8000F64F85919591A591B491C55DDD4F8883CE
:104D90009983AA83BB83DF91CF911F910F910895CF
:104DA00090917B0DE92FF0E0E958F24F80839F5FEF
:104DB000943040F490937B0D8091FE0E8F5F809332
:104DC000FE0E089510927B0DF7CF089590E080E0DD
:104DD000089580E1E3E7FFE0A8E3BFE001900D92D2
:104DE0008A95E1F7089580E1E8E3FFE0A3E7BFE0FB
:104DF00001900D928A95E1F708958091D1049091E8
:104E0000D2042FEF3FEF981751F0E92FF0E0EF5A5F
:104E1000FB4F208130E09F5F9F779093D204C901C0
:104E200008954F925F926F927F928F929F92AF926E
:104E3000BF92CF92DF92EF92FF92CF93DF93CDB7E5
:104E4000DEB76A970FB6F894DEBF0FBECDBF9A8F5C
:104E5000898F5B014A01FC01EE5BFF4F608171812C
:104E6000828193810F9465466B017C01D5012D9160
:104E70003D914D915C910F94C6460F94C74B0F9492
:104E80005C4C3B015C01F401208131814281538102
:104E9000C701B6010F94C6460F94C74B0F945C4CE4
:104EA0006D827E82AF82B8862D813E814F8158858A
:104EB000283731054105510540F428E730E040E04E
:104EC00050E02D833E834F83588769837A838B8399
:104ED0009C8389819A81AB81BC8188379105A1052A
:104EE000B10540F428E730E040E050E029833A8300
:104EF0004B835C83E98DFA8DE25BFF4F808191816A
:104F0000A281B38189879A87AB87BC87BC01CD0119
:104F10000F9467462B013C016D817E818F819885BE
:104F20000F946546698B7A8B8B8B9C8B20E030E0ED
:104F3000A901C301B2010F946046882309F43EC160
:104F4000A7019601C701B6010F94C6464B015C014B
:104F500029893A894B895C89CA01B9010F94C646EF
:104F60009B01AC01C501B4010F94E84A4B015C01FF
:104F7000A3019201C301B2010F94E94A9B01AC0164
:104F8000C501B4010F94E34B0F94C74B0F945C4CD5
:104F90006D877E878F87988B69857A858B859C85C1
:104FA00090958095709561957F4F8F4F9F4F0F948F
:104FB00067464B015C0169817A818B819C810F94EA
:104FC000654669877A878B879C8720E030E0A90156
:104FD000C501B4010F946046882309F4F3C0298504
:104FE0003A854B855C85CA01B9010F94C6466D8B25
:104FF0007E8B8F8B988FA7019601C701B6010F9406
:10500000C6469B01AC016D897E898F89988D0F946E
:10501000E84A6B017C01A5019401C501B4010F941C
:10502000E94A9B01AC01C701B6010F94E34B0F9411
:105030008B4CA98DBA8D95968D909D90AD90BC901E
:105040009897750164012D853E854F855889C21A50
:10505000D30AE40AF50A0F945C4CC61AD70AE80A88
:10506000F90AF7FE6EC020E030E0A901C301B201E9
:105070000F946046882309F4A9C0C501B4010F94B8
:1050800065466B017C01A3019201C301B2010F943B
:10509000E94A9B01AC01C701B6010F94C6466B01FA
:1050A0007C0129893A894B895C89CA01B9010F942D
:1050B000C6469B01AC01C701B6010F94E84A6B01DB
:1050C0007C0129853A854B855C85CA01B9010F941D
:1050D000C6469B01AC01C701B6010F94E94A6B01BA
:1050E0007C0120E030E040E850E4C301B2010F94BD
:1050F000C6469B01AC01C701B6010F94E34B0F9468
:10510000C74B6B017C0120E030E0A9010F94494DB1
:1051100018161CF0C12CD12C7601C701B6010F94D2
:105120005C4C6D877E878F87988B86169706A806BE
:10513000B90620F48D869E86AF86B88AC12CD12C04
:1051400076018D859E85AF85B889E98DFA8D82A718
:1051500093A7A4A7B5A7C80ED91EEA1EFB1EDF01A0
:10516000C6A6D7A6E0AAF1AAEA5BFF4F2D813E8131
:105170004F8158852083318342835383A65BBF4F81
:10518000FD0189819A81AB81BC8180839183A28357
:10519000B3836A960FB6F894DEBF0FBECDBFDF9122
:1051A000CF91FF90EF90DF90CF90BF90AF909F9006
:1051B0008F907F906F905F904F90089560E070E0C7
:1051C000CB01E2CE60E070E0CB0131CF60E070E077
:1051D000CB0195CF4F925F926F927F928F929F9269
:1051E000AF92BF92CF92DF92EF92FF920F931F93F5
:1051F000CF93DF93EC016091520570915305072E18
:10520000000C880B990B0F9467469B01AC016881D9
:1052100079818A819B810F94E84A6B017C016091BE
:10522000540570915505072E000C880B990B0F94AF
:1052300067469B01AC016C817D818E819F810F94BB
:10524000E84A4B015C01A70196016091060270914A
:10525000070280910802909109020F94604688230A
:1052600009F459C0C0920602D0920702E0920802E7
:10527000F09209022091F7043091F8044091F9046A
:105280005091FA04C701B6010F94C6462B013C01A8
:105290000F948B4C6B017C0120E030E0A9010F944E
:1052A000604687FD79C020E030E040E450E4C7016B
:1052B000B6010F94494D18162CF4C12CD12CA0E442
:1052C000EA2EFE2CA7019601C301B2010F94E84A11
:1052D0002B013C0120E030E0A9010F94604687FDDE
:1052E0005FC04092F3045092F4046092F50470920F
:1052F000F604C701B6010F94554C6093F204062ED4
:10530000000C770B6F5F7F4F6330710514F063E023
:1053100070E06093F104D0910102C091F204A50104
:1053200094016091020270910302809104029091B5
:1053300005020F94604681113CC0DC1393C020919C
:10534000D3043091D4044091D5045091D604609197
:10535000F3047091F4048091F5049091F6040F9495
:10536000C6462091D7043091D8044091D904509179
:10537000DA040F94E94ADF91CF911F910F91FF90CA
:10538000EF90DF90CF90BF90AF909F908F907F90E5
:105390006F905F904F900895C12CD12C760192CFE1
:1053A0001092F3041092F4041092F5041092F60493
:1053B000A0CF8092020290920302A0920402B092C7
:1053C00005022091FB043091FC044091FD045091B2
:1053D000FE04C501B4010F94C6464B015C010F9455
:1053E0008B4C6B017C0120E030E0A9010F946046FA
:1053F00087FDF9C020E030E040E450E4C701B60189
:105400000F94494D18162CF4C12CD12CF0E4EF2E3A
:10541000FE2CA7019601C501B4010F94E84A4B0187
:105420005C0120E030E0A9010F94604687FDDFC0F9
:105430008092ED049092EE04A092EF04B092F004FA
:10544000C701B6010F94554C6093EC04062E000C76
:10545000770B6F5F7F4F6330710514F063E070E08E
:105460006093EB040091EC04DC1305C08091000212
:10547000801709F46DC0C093010200930002002E52
:10548000000C110B24E0C202C0011124FC01E00F4A
:10549000F11FEE0FFF1FEE0FFF1FE45AFA4F20819E
:1054A0003181428153812093E7043093E804409393
:1054B000E9045093EA04C091EB040C2E000CDD0BC0
:1054C000FC01EC0FFD1FEE0FFF1FEE0FFF1FE45A54
:1054D000FA4F60817181828193810F94E84A6093D1
:1054E000E3047093E4048093E5049093E6048091D0
:1054F000F10424E08202C0011124FC01E00FF11F3D
:10550000EE0FFF1FEE0FFF1FE45AFA4F208131818B
:10551000428153812093DF043093E0044093E104FF
:105520005093E204C80FD91FCC0FDD1FCC0FDD1F35
:10553000C45ADA4F688179818A819B810F94E84A45
:105540006093DB047093DC048093DD049093DE04AD
:105550008090ED049090EE04A090EF04B090F004E1
:105560002091E3043091E4044091E5045091E60475
:10557000C501B4010F94C6462091E7043091E804B8
:105580004091E9045091EA040F94E94A6B017C01CF
:10559000C092D704D092D804E092D904F092DA04F1
:1055A0002091DB043091DC044091DD045091DE0455
:1055B000C501B4010F94C6462091DF043091E00488
:1055C0004091E1045091E2040F94E94AA701960149
:1055D0000F94E84A6093D3047093D4048093D50465
:1055E0009093D604ACCEC12CD12C760112CF109260
:1055F000ED041092EE041092EF041092F00420CF0C
:10560000CF92DF92EF92FF92CF93DF932091CF0B57
:10561000222329F1EC0108960E946B246B017C0186
:1056200020E030E0A9010F94604620E030E0A901BD
:10563000882359F0CE010E94EA289B01AC01C701E2
:10564000B6010F94C6469B01AC01688579858A85B1
:105650009B850F94E84A688779878A879B87DF91C3
:10566000CF91FF90EF90DF90CF9008958F929F920F
:10567000AF92BF92CF92DF92EF92FF920F93CF93B0
:10568000DF931F92CDB7DEB76C017B01490180919A
:1056900056055B01A40EB51E8823A1F0F60180819A
:1056A0009181480F591F518340830F90DF91CF9113
:1056B0000F91FF90EF90DF90CF90BF90AF909F90B1
:1056C0008F900895F601808191810F943D4A8983DE
:1056D00090915705992311F0002311F0F701808371
:1056E000BE016F5F7F4FC4010F944C14F60180819F
:1056F0009181019691838083FFEFEF1AFF0AEA14EC
:10570000FB0401F7D2CF0F931F93CF93DF93EC01EC
:105710000F94251B0E811F812885398501151105E0
:105720002105310579F52C85222339F1EA852150AF
:105730002C8721E02E0F2A873D85231301C01A866E
:10574000F0E03196EE0FFF1FEE0FFF1FEC0FFD1F75
:1057500002851385248535850A831B832C833D832D
:10576000600F711F811D911D6E837F8388879987CC
:105770008C819D81892B09F0769ADF91CF911F91C1
:105780000F910895601B710B820B930B97FDF5CF62
:1057900076981E821F8218861986EFCF0F94251BDC
:1057A000609321057093220580932305909324052F
:1057B00008958091AE039091AF03009731F04AE0D5
:1057C00050E070E060E00D94734360E070E0CB0166
:1057D00008950E94D92B97FD0CC00E94D92B6F3FD2
:1057E00071058105910509F034F40E94D92B862FAB
:1057F000089580E008958FEF08958091AE03909111
:10580000AF03892B41F00E94E92B91E0811101C087
:1058100090E0892F089591E0FCCF8091AE039091A4
:10582000AF03009731F04AE050E070E060E00D9483
:10583000A14460E070E0CB010895CF93DF93909195
:105840006F00292F227091FF05C090916F009D7FFE
:1058500090936F0094E0899FA0011124FA01E6570C
:10586000F44F6081718182819381222329F02091FC
:105870006F00226020936F00EA01CF54D44F0F9441
:105880006746288139814A815B810F94C646DF9142
:10589000CF9108958F929F92AF92BF92CF92DF9255
:1058A000EF92FF920F931F93CF93DF93CDB7DEB7A5
:1058B0002C970FB6F894DEBF0FBECDBF2091CF0B53
:1058C000222309F442C08A017B016C01CA010E94B3
:1058D0006B244B015C0119861A861B861C86F60117
:1058E00080819181A281B38189839A83AB83BC83B8
:1058F000F70180819181A281B3818D839E83AF83E3
:10590000B88720E030E0A901C501B4010F946046DA
:1059100020E030E0A901882361F0CE0101960E94C9
:10592000EA289B01AC01C501B4010F94C6469B0156
:10593000AC01F80160817181828193810F94E94A01
:10594000F80160837183828393832C960FB6F89459
:10595000DEBF0FBECDBFDF91CF911F910F91FF90A2
:10596000EF90DF90CF90BF90AF909F908F90089571
:1059700080916F00982F927081FF05C080916F0019
:105980008D7F80936F001092430D1092440D109202
:10599000450D1092460D992329F080916F00826089
:1059A00080936F0008958091690D811105C08091E9
:1059B0006A0D882309F45BC080919C051E9951C033
:1059C000816080939C0580919C051D994CC08260EC
:1059D00080939C0580919C05379947C08B7F80936D
:1059E0009C058091880B80FF10C08091870B80FF01
:1059F0000CC080919C0580FF08C080917C0D816067
:105A000080937C0D80E00E94AFF18091880B81FF34
:105A100010C08091870B81FF0CC080919C0581FF95
:105A200008C080917C0D826080937C0D81E00E9493
:105A3000AFF18091880B82FF1AC08091870B82FFA3
:105A400016C080916A0D882391F080919C0582FF99
:105A50000EC080917C0D846080937C0D82E00C945C
:105A6000AFF18E7FAECF8D7FB3CF8460B8CF089576
:105A70002BE1FB013496DC01149601900D922A95DE
:105A8000E1F7FB0122813381FC01338322832AE386
:105A900033E0318320830895FC0120E03EE2DB0106
:105AA0004D91BD01403249F0283011F430833196D8
:105AB000DB0111974C91408331962F5F2B3079F7A2
:105AC0001082089561E0FC0180810D9415198EBD4E
:105AD0000DB407FEFDCF08958FEF8EBD0DB407FE08
